:020000040800F2
:10000000A84601209D01000893180008350D00083E
:100010009118000869060008012D00080000000082
:10002000000000000000000000000000BB1B0008F2
:100030006B0600080000000011190008911C000860
:10004000B7010008B7010008B7010008B7010008B0
:10005000B7010008B7010008B7010008B7010008A0
:10006000B7010008B7010008B7010008B701000890
:10007000B7010008B7010008B7010008B701000880
:10008000B7010008B7010008B7010008B701000870
:10009000B7010008B7010008B7010008B701000860
:1000A000B7010008B7010008B7010008B701000850
:1000B000B7010008B7010008B7010008B701000840
:1000C000B7010008B7010008B7010008B701000830
:1000D000B70100083D2B0008B7010008B701000870
:1000E000B7010008B7010008B7010008B701000810
:1000F000B7010008B7010008B7010008B701000800
:10010000B7010008B7010008B7010008B7010008EF
:10011000B7010008B7010008F11C0008B70100088A
:10012000B7010008B7010008B7010008B7010008CF
:10013000B7010008B7010008B7010008B7010008BF
:10014000B7010008B7010008B7010008B7010008AF
:10015000B7010008B7010008B7010008B70100089F
:10016000B7010008B7010008B7010008B70100088F
:10017000B7010008B7010008B7010008B70100087F
:10018000B7010008B7010008DFF80CD000F05AFAF8
:100190000048004709830208A84601200648804716
:1001A00006480047FEE7FEE7FEE7FEE7FEE7FEE75C
:1001B000FEE7FEE7FEE7FEE7951C00088901000860
:1001C0002DE9F05F0546002092469B46884606468C
:1001D000814640241BE0284641464746224600F01F
:1001E00072F953465A46C01A914110D31146184627
:1001F000224600F059F92D1A67EB01084F462246B6
:100200000120002100F050F917EB00094E41201E9B
:10021000A4F10104DFDC484631462A464346BDE8E6
:10022000F09F2DE9F0410024061B254671F10006E0
:1002300005DA01240027D0EB070067EB0101161E49
:1002400073F1000605DA0027D2EB0702012567EB00
:100250000303FFF7B5FF86460E4617469C46AC42A1
:1002600004D00025D0EB050E65EB010624B100207B
:10027000D2EB000760EB030C704631463A4663460A
:10028000BDE8F0810649074A0868504343F2390245
:10029000104408604008704701490860704700003A
:1002A0001C0100206D4EC64140EA01039B0703D0AC
:1002B00009E008C9121F08C0042AFAD203E011F8A5
:1002C000013B00F8013B521EF9D27047D2B201E067
:1002D00000F8012B491EFBD270470022F6E710B54B
:1002E00013460A4604461946FFF7F0FF204610BDA4
:1002F0002DE9FE4F81EA030404F0004421F000419F
:1003000000944FF0000B23F0004350EA01045ED04C
:1003100052EA03045BD0C3F30A54C1F30A552C44D8
:10032000A4F2F3340194A0FB0254C1F3130141F48D
:100330008011C3F3130343F4801301FB024400FB59
:10034000034E840A970A44EA815447EA8357A4FB80
:10035000076802958D0A05FB07854FEA932C04FB7D
:100360000C542705029D4FEA065847EA1637B5EBAD
:1003700008056EEB070C870E920E47EA811742EADA
:100380008312A7FB0201B6EB0B0164EB00042B0DFB
:1003900043EA0C335E1844EB1C50DA465146E7FB47
:1003A0000201C5F313044FEA0B3343EA14534FEA37
:1003B0000432019C43EA0603A4F10C040294009C5D
:1003C000CDE900B400F09EF803B0BDE8F08F002046
:1003D0000146F9E70EB540F2334102910021CDE923
:1003E00000110A460B4600F08DF803B000BDC1F3C2
:1003F0000A5210B5C1F3130140F2FF3341F48011EA
:100400009A4201DA002010BD40F233439A42A2F230
:10041000334203DC524200F056F810BD904010BD4C
:1004200000F0004230F000400AD0C10D01F56071CB
:10043000C0F3160042EA0151C20840071143704759
:10044000002001467047000030B5041E71F1000421
:1004500004DB4FF00044404264EB0101141E73F1D1
:10046000000405DB1C464FF00043524263EB0403DB
:100470008B4208BF824230BD30B5041E71F10004CA
:1004800004DB4FF00044404264EB0101141E73F1A1
:10049000000405DB1C464FF00043524263EB0403AB
:1004A000994208BF904230BD202A04DB203A00FA6E
:1004B00002F1002070479140C2F1200320FA03F3BB
:1004C000194390407047202A04DB203A21FA02F0B9
:1004D0000021704721FA02F3D040C2F1200291407E
:1004E00008431946704710B5141E73F1000408DA6A
:1004F000401C41F1000192185B411A4301D120F0E8
:10050000010010BD2DE9F04D92469B4611B1B1FAA4
:1005100081F202E0B0FA80F220329046FFF7C4FF89
:1005200004460F4640EA0A0041EA0B0153465A4688
:10053000084313D0114653EA010019D0C8F1400214
:100540005046FFF7C0FF05460E4650465946424604
:10055000FFF7AAFF084305D0012004E020463946F2
:10056000BDE8F08D0020054346EAE0762C43374392
:100570000A986305E40AA0EB08000022FD0A44EA99
:1005800047540A3002D500200146E9E70105101959
:100590006941DDE9084500196941BDE8F04DA2E770
:1005A0002DE9F04D00231A461B1A8A4103DB002077
:1005B0000146BDE8F08DC1F30A52C1F3130141F4C5
:1005C00080154FF0000BD10702D100186D41521E6B
:1005D0000027044640F2FF11384601EB620A3E460E
:1005E0008046024600204FF48011FFF76CFFC219CD
:1005F0007141BB1846EB0100B4EB030C75EB000C2A
:1006000004D3E41A65EB000517460E46241908F1D9
:1006100001006D4180463428E3DDF91946EB060000
:10062000091BA84103D24FF0FF32134601E000221C
:1006300013461BEB070046EB0A51BDE8F04DFFF7F0
:1006400052BF0000064C074D06E0E06840F0010391
:1006500094E8070098471034AC42F6D3FFF798FDB2
:10066000FC7B03081C7C0308FEE77047F0B585B0EF
:1006700014461D460A4B1A88121A92B25B885B1AFE
:100680009BB2084F4FF0100C00263F88CDE9005C6C
:10069000CDE90376029400F089FA05B0F0BD0000C0
:1006A00024010020020000208000A0F1C0400029A9
:1006B00004D0016841F00101016070470168024AFD
:1006C0001140016070470000FEFF0F0010B5D0E937
:1006D00001121143D0E903231A4311434269114324
:1006E00082691143C2691143026A1143426A11438C
:1006F000826A1143C26A1143026B1143026892007D
:10070000A2F1C04211608168082907D101688900FF
:10071000A1F1C0410A6842F040020A60416BD1E990
:10072000002342EA03128B688C891B0243EA0443CC
:100730001A430B8A42EA03520B7D896942EA03623B
:100740000A430168491C8900A1F1C0410A60C16ADD
:10075000B1F5804F08D000686FF070418000A0F1C3
:10076000C040C0F8041110BD816BD1E9002342EAFA
:1007700003128B680C8A1B0243EA04531A430B7D55
:10078000896942EA036200680A438000A0F1C04020
:10079000C0F8042110BD00002DE9F04105460C46CB
:1007A0001646DFF858804FF400573946404600F0AF
:1007B000BFFA052000F059FA032000F021F8C4F335
:1007C000074000F01DF8C4F3072000F019F8E0B26C
:1007D00000F016F8002405E0FF2000F011F828557D
:1007E000641CA4B2B442F7D33946404600F09EFAE6
:1007F000BDE8F041052000F038BA000000080240D2
:100800002DE9F04705460024DFF85490154F4FF4CA
:100810000068280604D54146484600F089FA03E0FE
:100820004146484600F082FA0121384600F07EFA3F
:100830006806060E0421384600F071FA40EA060503
:100840000121384600F074FA641CE4B2082CE0D3AD
:100850000121384600F06CFA2846BDE8F087000018
:10086000001402400004024030B4044610460D4615
:100870001A46217820281DD009DC0C2812D0102817
:1008800014D018281ED1104801FB020106E03028C0
:1008900014D0402816D10D4801FB0201284630BC77
:1008A000FFF77ABF514301F50021F7E7084801FB44
:1008B0000201F3E7074801FB0201EFE7064801FBED
:1008C0000201EBE730BC70470012080000920800FC
:1008D00000080800002608000048080030B405465B
:1008E00008462C786978812C0AD3402908D3FF293F
:1008F00006D0FF2C04D07F290DD24039CDB20CE0B8
:100900000021002203E000F8012B491C89B2994222
:10091000F9D330BC70474139CDB2813CE1B2C1EB73
:10092000411404EB811105EB410159430C2A0BD012
:10093000102A0CD0182A0DD0202AEAD101F5601116
:1009400030BC1A46FFF728BF044A1144F8E7044AAE
:100950001144F5E701F5ED11F2E70000001409007C
:1009600000DD11007CB50121262000F0D3FF062018
:10097000009000208DF804008DF8060003208DF80B
:10098000050001248DF80740114D6946284600F006
:1009900078F900948DF804406946284600F071F912
:1009A000610300918DF8044069460A4800F069F936
:1009B000E10200918DF804406946074800F061F9B2
:1009C0000121284600F0B4F900F008F87CBD0000D1
:1009D00000040240000802400014024070B586B0D6
:1009E0004FF6FF7000F0CAF9002000246D462C5429
:1009F000401CC0B21828FAD3112200216846FFF724
:100A0000CBFE4FF4784610216B4632460846FFF77E
:100A10002DFE00202C54401CC0B21828FAD3082206
:100A200014216846FFF7B8FE6B463246202110209D
:100A3000FFF71CFE00202C54401CC0B21828FAD32B
:100A400008221E216846FFF7A7FE6B46324630217A
:100A50001020FFF70BFE4FF4FA7006F09BFC06B077
:100A600070BD2DE9F04FC1B082460D4616461C46BA
:100A7000A946600701D0012000E0002000EBD40B64
:100A800060080BFB00FB0C2C09D0102C07D0182C95
:100A900005D0202C03D0302C01D0402C33D15B4624
:100AA000224601A93046FFF7DFFE4FF0000828E09C
:100AB00001A810F808700026380605D529465046CA
:100AC0004A9A00F0A5FA06E04C9820B9294650460B
:100AD0004B9A00F09DFA7806070E6D1CADB2A5EB9F
:100AE0000900A04205D14D460AF1010A1FFA8AFA0F
:100AF00003E0761CB6B2082EDED308F101081FFA17
:100B000088F8D845D4D341B0BDE8F08F2DE9F04F37
:100B1000A1B082460C4615461F46A146780701D073
:100B2000012000E0002000EBD70B0BFB07FB0C2F94
:100B300005D0102F03D0182F01D0202F33D15B46C2
:100B40003A4601A92846FFF7C9FE4FF0000828E001
:100B500001A810F808600025300605D5214650464A
:100B60002A9A00F055FA06E02C9820B92146504602
:100B70002B9A00F04DFA7006060E641CA4B2A4EB8A
:100B80000900B84205D14C460AF1010A1FFA8AFA57
:100B900003E06D1CEDB2082DDED308F1010808F06A
:100BA000FF08D845D4D321B0BDE8F08F2DE9FF4F21
:100BB00083B00446DDE910750E469346A046B24662
:100BC0004FF0000920E0B9F1000F23D04FF00009E9
:100BD00008EB0B00401BA04202DA701986B24446B3
:100BE00006985044401BB04211DBDDE91212149804
:100BF000CDE9001202902B463A4631462046FFF7D7
:100C000085FFBF1C601984B238780028DBD107B09B
:100C1000BDE8F08F802802D94FF00109F4E708EB16
:100C20000B01A1EB5501A14202DA71198EB24446C3
:100C300006995144491BB142E9DB0D2810D0DDE98A
:100C400012121498CDE9001202902B463A46314612
:100C50002046FFF706FF7F1C04EB550084B2D3E764
:100C6000701986B244467F1CF5E7002206E0002199
:100C7000491CC9B26429FBD3521CD2B28242F6D3BA
:100C800070472DE9F041002201274FF0030C07FACD
:100C900002F50B682B40AB422CD1066853000CFACE
:100CA00003F4A64306600E79D0F800809E4046EA21
:100CB000080606600E79012E01D0022E12D1866838
:100CC000A64386604E79D0F808809E4046EA080622
:100CD00086604668AE43466045688E799640B6B2F7
:100CE00035434560C568A543C560CC799C40C36861
:100CF0001C43C460521C102AC9D3BDE8F08110B552
:100D00004B07DB0E9A40C90800EB8100016A0F24F3
:100D10009C40A1430162016A1143016210BD024679
:100D2000002012690A4200D00120704741837047B9
:100D300001837047FEE700001CB50121032000F08D
:100D4000E9FD4FF44070009000208DF8040003206E
:100D50008DF8050001248DF8074069460548FFF726
:100D600090FF009402208DF8070069460248FFF7C3
:100D700088FF1CBD0004024000000240F0B505469B
:100D800000240C4F002108467B883A8800F03CFC88
:100D90003E88788846430021084600F015FC00F0A4
:100DA00047FD4FF0D84102E0A1F88050641CB442E6
:100DB000FAD3F0BD240100202DE9F0478246DDF88A
:100DC00020800E46A2EB0A00401C85B2981B401CF6
:100DD00087B200244FF0D84914E0301981B2504650
:100DE00000F0F2FB00F024FD002207E004FB0520E8
:100DF00038F81000A9F88000521C92B2AA42F5D32C
:100E0000641CA4B2BC42E8D3BDE8F087F0B400276C
:100E10001E49F0222C242A252B264FF4A0730028EB
:100E200011D0012817D04FF0010C02281BD0032845
:100E300022D08F710A804B800C814D818E810020E1
:100E4000F0BC00F071BB8F710A804B800C814D812A
:100E50008E810020F4E78F710A804B800C814D81D8
:100E60008E810320ECE781F806C00B804A800C815C
:100E70004D818E810520E3E781F806C00B804A8012
:100E80000C814D818E810620DAE7000024010020CC
:100E90002DE9FE4F00250026171AA3EB0108814615
:100EA0008A46681E002F03DD4FF00101019107E023
:100EB00003D14FF00001019102E00190C7F100075A
:100EC000B8F1000F03DD4FF00100009007E003D1FF
:100ED0004FF00000009002E00090C8F10008474584
:100EE00001DD3C4600E044464FF0000B601C0290E0
:100EF00016E01FFA8AF11FFA89F00C9A00F088F8C0
:100F00003D444644A54202DD2D1B01988144A64282
:100F100002DD361B009882440BF1010B1FFA8BFB9C
:100F200002988345E5DDBDE8FE8F000000B500F0C6
:100F30004BFB00F07DFC024802490088088000BDA0
:100F4000000000208000006C2DE9FF4F82B00746B2
:100F50008846002415460320A0EB420653E0A8EB88
:100F6000050081B207EB040A01901FFA8AF0059A86
:100F700000F04EF8A8EB0400009081B207EB0509E1
:100F80001FFA89F0059A00F043F808EB040B1FFAEA
:100F90008BF11FFA89F0059A00F03AF808EB050981
:100FA0001FFA89F11FFA8AF0059A00F031F81FFA4A
:100FB00089F1A7EB04091FFA89F0059A00F028F8D7
:100FC000A7EB050A1FFA8BF11FFA8AF0059A00F0C9
:100FD0001FF80198059A81B21FFA89F000F018F8FD
:100FE0000098059A81B21FFA8AF000F011F8641C8B
:100FF000002E03DA06EB8406B61D04E0601B06EB48
:1010000080060A366D1EAC42A9DD06B0BDE8F08F41
:1010100030B504460D460E4B9888A0F51341413972
:1010200015D1588900F0FEFB200A00F0F5FBE0B274
:1010300000F0F2FB988900F0F5FB280A00F0ECFBC9
:10104000E8B200F0E9FB034819890180428030BD15
:10105000240100207E00006C2DE9F04F9FB001219B
:101060007A2000F057FC0121084600F061FC4FF4A3
:1010700000401D904FF001088DF8788000248DF815
:101080007A4002258DF879508DF87B801DA9FE48A5
:10109000FFF7F7FD4CF233701D908DF878508DF806
:1010A0007A4003268DF879608DF87B80DFF8DC9339
:1010B0001DA94846FFF7E5FD4FF680701D908DF89D
:1010C00078508DF87A408DF879608DF87B80DFF864
:1010D000C0A31DA95046FFF7D4FDEF021D978DF860
:1010E00078508DF87A408DF879608DF87B80DFF844
:1010F000A4B31DA95846FFF7C4FD1D978DF878507D
:101100008DF87A408DF879608DF87B80E24D1DA9CD
:101110002846FFF7B6FD0C2200214846FFF7EFFDF9
:101120000C2201214846FFF7EAFD0C220421484623
:10113000FFF7E5FD0C2205214846FFF7E0FD0C22F4
:1011400008214846FFF7DBFD0C2209214846FFF73E
:10115000D6FD0C220A214846FFF7D1FD0C220E21B4
:101160004846FFF7CCFD0C220F214846FFF7C7FD8C
:101170000C2207215046FFF7C2FD0C2208215046E1
:10118000FFF7BDFD0C2209215046FFF7B8FD0C22E8
:101190000A215046FFF7B3FD0C220B215046FFF702
:1011A000AEFD0C2211465046FFF7A9FD0C220D2181
:1011B0005046FFF7A4FD0C220E215046FFF79FFD7D
:1011C0000C220F215046FFF79AFD0C22114658467B
:1011D000FFF795FD0C2211462846FFF790FD0F20E2
:1011E00007900894182009900A940B940C940D947D
:1011F00008200090019402900394049405940694AE
:1012000006200E900F9410941020119012941494B4
:1012100013941594169417971894800219901A94A1
:1012200007A81B90CDF870D00EA8FFF74FFA012148
:101230000620FFF739FA322006F0ACF8002000F063
:1012400069F9964A90804FF6FF7449F24135FF28BC
:1012500004D3A04202D0B0F5134F14D1D32000F034
:10126000E1FA00F04DF9908000F04AF9908000F02A
:1012700047F904EA0020908000F042F99188084381
:101280009080A8427ED19088A8427CD1CF2000F0E7
:10129000C9FA002000F0C0FAC12000F0BDFA3020E9
:1012A00000F0BAFAED2000F0BDFA642000F0B4FAC4
:1012B000032000F0B1FA122000F0AEFA812000F015
:1012C000ABFAE82000F0AEFA852000F0A5FA102075
:1012D00000F0A2FA7A2000F09FFACB2000F0A2FAE8
:1012E000392000F099FA2C2000F096FA002000F046
:1012F00093FA342000F090FA022000F08DFAF720E3
:1013000000F090FA202000F087FAEA2000F08AFA34
:10131000002000F081FA002000F07EFAC02000F0EA
:1013200081FA1B2000F078FAC12000F07BFA01203E
:1013300000F072FAC52000F075FA302000F06CFA67
:10134000302000F069FAC72000F06CFAB72000F0F6
:1013500063FA362000F066FA482000F05DFA3A2081
:1013600000F060FA552000F057FAB12000F05AFA68
:10137000002000F051FA1A2000F04EFAB62000F0DA
:1013800051FA01E0AFE0A5E00A2000F045FAA22002
:1013900000F042FAF22000F045FA002000F03CFA9A
:1013A000262000F03FFA012000F036FAE02000F09D
:1013B00039FA0F2000F030FA2A2000F02DFA282008
:1013C00000F02AFA082000F027FA0E2000F024FA94
:1013D000082000F021FA542000F01EFAA92000F0A5
:1013E0001BFA432000F018FA0A2000F015FA0F202B
:1013F00000F012FA002000F00FFA002000F00CFAC2
:10140000002000F009FA002000F006FAE12000F0C8
:1014100009FA002000F000FA152000F0FDF917206D
:1014200000F0FAF9072000F0F7F9112000F0F4F9C4
:10143000062000F0F1F92B2000F0EEF9562000F024
:10144000EBF93C2000F0E8F9052000F0E5F9102068
:1014500000F0E2F90F2000F0DFF93F2000F0DCF9A6
:101460003F2000F0D9F90F2000F0D6F92B2000F032
:10147000D9F9002000F0D0F9002000F0CDF90120CA
:1014800000F0CAF93F200BE000040240000C0240CB
:101490000010024000140240001802402401002005
:1014A00000F0BAF92A2000F0BDF9002000F0B4F9EC
:1014B000002000F0B1F9002000F0AEF9EF2000F0BC
:1014C000ABF9112000F0AEF9782005F063FF292078
:1014D00000F0A8F90020FFF799FC0448C0F8BC828E
:1014E0002046FFF74BFC1FB0BDE8F08F0080404264
:1014F0000346012000E05843491EC9B2FBD27047A1
:1015000008B5034800880090BDF8000008BD000041
:101510008000006C10B500F085F9052005F054FF3F
:10152000BDE81040FFF7ECBF10B50021254B9A88AD
:10153000A2F51344413C43D1082812D2DFE800F061
:10154000110406080A0C0E1080210AE0402108E070
:10155000C02106E0202104E0602102E0A02100E09B
:10156000E02141F00801362000F06CF9588900F0C4
:1015700059F9002000F050F9002000F04DF91888CA
:10158000401EC0F30F2000F047F91878401EC0B28B
:1015900000F042F9988900F045F9002000F03CF98C
:1015A000002000F039F95888401EC0F30F2000F0E9
:1015B00033F99878BDE81040401EC0B200F02CB955
:1015C00010BD00002401002010B502460B460D4C52
:1015D000A088A0F51341413913D1608900F022F9A8
:1015E000100A00F019F9D0B200F016F9A08900F045
:1015F00019F9180A00F010F9BDE81040D8B200F04F
:101600000BB910BD2401002070B504460D46A0188A
:10161000401E82B2E818401E83B2134EB088A0F577
:10162000134141391FD1708900F0FCF8200A00F005
:10163000F3F8E0B200F0F0F8100A00F0EDF8D0B2E4
:1016400000F0EAF8B08900F0EDF8280A00F0E4F8BC
:10165000E8B200F0E1F8180A00F0DEF8BDE87040EA
:10166000D8B200F0D9B870BD240100202DE9F84FA0
:1016700082460C461F46A346780701D0012000E0B1
:10168000002000EBD70079084843C0B20090203A10
:1016900002F0FF09002648E00C2F13D0102F18D0BD
:1016A000182F45D1234909EBC90001EB8000855D66
:1016B0004FF00008280611D5214650460A9AFFF738
:1016C000A7FC13E01C4909EB490001EB8000855D94
:1016D000EEE71A4800EB0910855DE9E70B9828B999
:1016E0001748214642885046FFF792FC6806050ECF
:1016F000641CA4B213484088A04219D9A4EB0B0083
:10170000B84209D15C460AF1010A1FFA8AFA0D486B
:10171000008850450CD906E008F1010808F0FF08E0
:10172000B8F1080FC6D3761CF6B200988642B3D340
:10173000BDE8F88FE02103087C170308F01B0308BD
:1017400000000020240100202DE9FF4F82B08046D8
:10175000DDF8409093461D46002600240F98A246CF
:1017600047081FE0281B401EC1B20A20FFF7C0FE39
:10177000BBFBF0F00A21B0FBF1F201FB120026B92D
:10178000691E8C4201DA90B101263030C2B2CDE937
:10179000009A07FB048080B20F9B0399FFF766FF56
:1017A000641CE4B2AC42DDD306B0BDE8F08FCDE9F5
:1017B000009A07FB048080B220220F9B0399FFF759
:1017C00055FFEDE72DE9FC4F0446DDE90B7B0D9E4F
:1017D0000D4604F0FF0810191FFA80F958191FFA76
:1017E00080FA12E04C4502D34446E81985B25545CB
:1017F00010D20020CDE900B03B4629462046FFF735
:1018000035FF04EB570084B2761C3278A2F1200039
:101810005E28E7D9BDE8FC8F0149088070470000C9
:101820008000006C01490880704700007E00006C59
:101830000248034900890880704700002401002005
:101840007E00006C014A1080518070477E00006C61
:101850007CB50121202000F05DF84FF4C0640094B5
:1018600001208DF8040000228DF8062003228DF857
:1018700005208DF80700054D69462846FFF701FA57
:1018800021462846FFF754FA7CBD000000140240B0
:10189000FEE7704730B50F23C27801250178002A92
:1018A0001FD0154A126802F4E062C2F5E062C2F38A
:1018B0000722C2F10404D3404278A24084781C403D
:1018C0001443220101F1E02181F80024007800F0A6
:1018D0001F018D404009800000F1E020C0F8005158
:1018E00030BD01F01F0085404809800000F1E02074
:1018F000C0F8805130BD00000CED00E00249084303
:1019000002490860704700000000FA050CED00E095
:1019100070470000054A002903D011680143116097
:1019200070471168814311607047000030380240F1
:10193000054A002903D011680143116070471168FE
:10194000814311607047000038380240054A002981
:1019500003D0116801431160704711688143116021
:101960007047000040380240054A002903D0116842
:101970000143116070471168814311607047000096
:1019800044380240054A002903D011680143116020
:10199000704711688143116070470000243802408D
:1019A00070B5244B196801F00C01234C00291ED09E
:1019B000661004291DD008291DD00460196801F0A3
:1019C000F00109091D4A545C0168E14041601C684E
:1019D00004F4E054A40A145D21FA04F484601B6842
:1019E00003F460435B0BD25CD140C16070BD046006
:1019F000E4E70660E2E70F4A121F1168C1F3805561
:101A0000116801F03F0135B1B6FBF1F11468C4F380
:101A10008814614305E0B4FBF1F11468C4F3881441
:101A200061431268C2F30142521C5200B1FBF2F151
:101A30000160C3E7083802400024F4005000002091
:101A40002DE9F04387B001210846FFF763FF4FF40B
:101A5000805801214046FFF787FF38270597022568
:101A60008DF8185000248DF81A4003208DF81900C5
:101A700001268DF81B60DFF8849005A94846FFF722
:101A800000F9052203214846FFF739F90522042110
:101A90004846FFF734F9052211464846FFF72FF96B
:101AA00001214046FFF76EFF00214046FFF76AFF25
:101AB000ADF800404FF48270ADF80200ADF804407C
:101AC000ADF80650ADF808602802ADF80A00ADF890
:101AD0000C70ADF80E400720ADF81000084C6946B8
:101AE000204600F04EF80121204600F033F8FF2098
:101AF00000F008F807B0BDE8F083000000040240E1
:101B00000030014070B505460A4C0221204600F025
:101B10002DF80028F9D02946204600F030F80121A0
:101B2000204600F023F80028F9D0204600F025F8E0
:101B3000C0B270BD0030014001460548028822F065
:101B40003802028002880A430280012100F002B8B4
:101B500000300140002904D0018841F0400101809B
:101B60007047018821F04001018070470246002043
:101B700012890A4200D00120704780897047818114
:101B8000704730B5028802F441530A884C88CD88EA
:101B900022438C882C4322430C8922434C892243C4
:101BA0008C892243CC8922431A430280828B22F4FF
:101BB00000628283098A018230BD70470CB5002221
:101BC000019200922749086840F4803008604FF481
:101BD000A043086800F4003000900198401C019078
:101BE000009810B901989842F3D10868800302D593
:101BF0000120009000E000920098012831D119489E
:101C00004030026842F0805202601748026842F495
:101C1000404202601348083002680260026842F4E1
:101C200000420260026842F4A0520260021F0F4BA1
:101C300013600A6842F080720A600A689201FCD55B
:101C40000B4A40F205711160016821F00301016047
:101C5000016841F0020101600168C1F381010229BC
:101C6000FAD10CBD00380240007000400854400713
:101C7000003C02404FF0E021042804D0086920F025
:101C8000040008617047086940F00400086170476B
:101C90007047000010B51248016841F470010160FE
:101CA0001048016841F0010101600E4A002108322C
:101CB000116002680C4B1A400260031D0B4A1A6047
:101CC000026822F48022026006480C300160FFF7AF
:101CD00075FF03494FF000608039086010BD0000B7
:101CE00088ED00E000380240FFFFF6FE10300024CF
:101CF00010B5084C0121204600F04BF8012807D10F
:101D000025F052FD2046BDE81040012100F032B818
:101D100010BD0000001000407FB501211020FFF72A
:101D200015FE40F2E73002905320ADF80400002485
:101D3000ADF80C40ADF806400D4D01A9284600F065
:101D40003FF836218DF800108DF8014001218DF803
:101D500002108DF803106846FFF79CFD0122114622
:101D6000284600F022F80121284600F006F87FBD41
:101D700000100040C94301827047002904D0018847
:101D800041F0010101807047018821F001010180CB
:101D9000704702460020138A0B4092890A40002BAC
:101DA00002D0002A00D001207047002A03D0828987
:101DB0000A438281704782898A438281704700008A
:101DC00030B50288164C174DA0420DD0A8420BD05A
:101DD000B0F1804F08D0144B984205D0134B984275
:101DE00002D0134B984203D122F070034A881A4361
:101DF000104B984206D0104B984203D022F4407307
:101E00000A891A4302804A68C2620A880285A0428F
:101E100001D0A84201D1897A01860121818230BD99
:101E200000000140000401400004004000080040A0
:101E3000000C004000100040001400402DE9FF4F4E
:101E400083B09046DDE911ABDDF840901F46554860
:101E50004FF478440480102553A0544ECDE900542B
:101E6000029073883288A0212820FFF7ABFC50A095
:101E7000CDE90054029073883288A0217820FFF7C2
:101E8000A1FC4CA0CDE90054029073883288B421A3
:101E90002820FFF797FC48A0CDE9005402907388F2
:101EA0003288B4217820FFF78DFC44A0CDE900549E
:101EB000029073883288C8212820FFF783FC40A055
:101EC000CDE90054029073883288C8217820FFF74A
:101ED00079FC3CA0CDE90054029073883288DC2163
:101EE0002820FFF76FFC38A0CDE9005402907388DA
:101EF0003288DC217820FFF765FC34A0CDE900545E
:101F0000029073883288F0212820FFF75BFCCDE92E
:101F100000540423A0214020039AFFF715FCCDE9CB
:101F200000540423A0219020049AFFF70DFCCDE972
:101F3000005404234246B4214020FFF705FCCDE9BC
:101F4000005404233A46B4219020FFF7FDFBCDE96D
:101F5000005404234A46C8214020FFF7F5FBCDE991
:101F6000005404235246C8219020FFF7EDFBCDE931
:101F7000005404235A46DC214020FFF7E5FBCDE95D
:101F800000540423DC219020139AFFF7DDFBCDE9F8
:101F900000540323F0216020149AFFF7D5FB07B00B
:101FA000BDE8F08F0000002078313A0024010020C5
:101FB00079313A0078323A0079323A0078333A008F
:101FC00079333A0078343A0079343A006661632014
:101FD00069733A002DE9F04F2DED0C8B89B0002488
:101FE00000251F20FE4F3880FE484FF6FF79A0F8ED
:101FF00000904846FEF7C2FE00263E80FA484FF0A9
:10200000100828210068CDE9008602906423A022F0
:102010000846FFF7D7FBF5A04FF47847CDE9000855
:10202000CDE902791023F022C82104960820FEF79A
:10203000BDFDF4A0CDE90008CDE902791023F0221E
:10204000DC2104960820FEF7B1FD14213A4608462B
:1020500000F020FBDFF8C49389F820609FEDF00AC0
:1020600089ED090A9FEDEFAB9FEDF0BB9FEDF19B72
:10207000F24EA9F1080AD9F804100120884799F80E
:1020800020000121B1EB901F48D1002520F0400035
:1020900089F8200005A8B9F80C1020F8241000EBEE
:1020A0008400B9F816104180641CE4B2012C06D0FB
:1020B000022C12D0032C20D0042C2FD13DE014216F
:1020C0004FF6FF72084600F0E5FA30883A461438B9
:1020D00080B2142100F0DEFA20E030884FF6FF7263
:1020E000143880B2142100F0D5FA70883A461438BA
:1020F00081B2142000F0CEFA10E070884FF6FF7223
:10210000143881B2142000F0C5FA70883A461438A9
:1021100081B23088143880B200F0BCFA0A2005F091
:1021200039F96D1CADB2B5F57A7FA4D900F0F4FA97
:1021300009B0BDEC0C8BBDE8F08FBDF81400BDF804
:102140001810401A00D54042BDF81610BDF81A20EC
:10215000891A00D54942404349430844FEF73AF9F9
:1021600041EC100B00F03AFF51EC100BFEF73FF979
:1021700084B2BDF81C00BDF82010401A00D54042C2
:10218000BDF81E10BDF82220891A00D549424043EF
:1021900049430844FEF71EF941EC100B00F01EFF06
:1021A00051EC100BFEF723F91FFA80FB00EE104AEA
:1021B000F8EE400A00EE10BAB8EE401A80EE810A3E
:1021C00010EE100AFEF72CF941EC180B53EC1A2B09
:1021D00051EC180BFEF738F97ED353EC1B2B51EC66
:1021E000180BFEF749F977D3002C75D0BBF1000F1F
:1021F00072D0BDF81400BDF81C10401A00D5404242
:10220000BDF81610BDF81E20891A00D5494240437A
:1022100049430844FEF7DEF841EC100B00F0DEFE07
:1022200051EC100BFEF7E3F884B2BDF81800BDF8CE
:102230002010401A00D54042BDF81A20BDF82210E7
:10224000511A00D54942404349430844FEF7C2F8B9
:1022500041EC100B00F0C2FE51EC100BFEF7C7F87A
:1022600080B200EE104AF8EE400A00EE100AB8EE16
:10227000401A80EE810A10EE100AFEF7D1F841EC08
:10228000180BB0EE4ACAF0EE6ACA53EC1C2B51ECA4
:10229000180BFEF7D9F80AD3B0EE4BDAF0EE6BDA92
:1022A00053EC1D2B51EC180BFEF7E6F863D200241B
:1022B00070884FF6FF72143881B23088143880B2BB
:1022C00000F0E8F914213A46084600F0E3F953EC2F
:1022D000192B51EC180B00E01CE0FEF709F8FEF793
:1022E00086F8BDF82020BDF82210BDF81E30CDE9DB
:1022F000013280B2CDE90310BDF81C000090BDF89A
:102300001A30BDF81820BDF81610BDF81400FFF7FC
:1023100095FDB0E6002470884FF6FF72143881B244
:102320003088143880B200F0B5F914213A460846D6
:1023300000F0B0F953EC192B51EC180BFDF7D8FF56
:10234000FEF755F8BDF82020BDF82210BDF81E306C
:10235000CDE9013280B2CDE90310BDF81C00009038
:10236000BDF81A30BDF81820BDF81610BDF81400DD
:10237000FFF764FD7FE6BDF81800BDF81C10401A99
:1023800000D54042BDF81A10BDF81E20891A00D5AC
:102390004942404349430844FEF71CF841EC100B06
:1023A00000F01CFE51EC100BFEF721F884B2BDF8D2
:1023B0001400BDF82010401A00D54042BDF8161098
:1023C000BDF82220891A00D54942404349430844B8
:1023D000FEF700F841EC100B00F000FE30E00000CA
:1023E000000000200200002078170308D0A3D7BC0B
:1023F000A3BAD2C0B4CEB5E3CBC4BDC7B5C4B5E3B0
:1024000000000000202020202020BDF8D0D0B4A55E
:10241000C3FEC6C1D0A3D7BC000000000C00002042
:1024200000000000666666666666EE3FCDCCCCCCEA
:10243000CCCCF03F000000000000594024010020F7
:1024400051EC100BFDF7D3FF80B200EE104AF8EE0E
:10245000400A00EE100AB8EE401A80EE810A10EE33
:10246000100AFDF7DDFF41EC180B53EC1C2B51EC6F
:10247000180BFDF7E9FF06D353EC1D2B51EC180B9D
:10248000FDF7FAFF30D2002470884FF6FF7214383F
:1024900081B23088143880B200F0FCF814213A463A
:1024A000084600F0F7F853EC192B51EC180BFDF728
:1024B0001FFFFDF79CFFBDF82020BDF82210BDF8DE
:1024C0001E30CDE9013280B2CDE90310BDF81C0009
:1024D0000090BDF81A30BDF81820BDF81610BDF8F0
:1024E0001400FFF7ABFCC6E5BDF81810BDF81400EA
:1024F0000A1A00EE102A3288B8EEC01AA2F1280398
:1025000000EE103AB8EEC00AC0EE010AC9ED090AA1
:10251000084400EE100AF6EE001AB8EE401A00EE7B
:10252000102AB8EE400A00EEC10A20EE210A89ED19
:102530000B0ABDF81E30BDF81600191A00EE101A6D
:102540007188B8EEC01AA1F1280400EE104AB8EE66
:10255000C02A82EE010A89ED0A0A184401EE100A27
:10256000B8EE412A01EE101AB8EE411A00EE421AF6
:1025700021EE211A89ED0C1AFDEEE00A10EE900A08
:10258000002800DA4042022808DCBDEEC00A10EE46
:10259000100A002800DA404202282EDD0024143AF6
:1025A000143990B289B24FF6FF7200F073F814211B
:1025B0003A46084600F06EF824A0CDE90087029064
:1025C000738832881A212820FFF7FCF899F8340024
:1025D00050B1002089F8340040B190208AF8000002
:1025E000D0208AF8010046E50120F3E7D0208AF8E0
:1025F000000090208AF801003DE519491F2008805D
:102600004FF6FF742046FEF7B9FB16A0CDE9008710
:102610000290738832886E212020FFF7D3F8CDE92D
:1026200001870020CDE9034014A000901023F02280
:1026300082212020FEF7BAFA4FF47A7004F0AAFE45
:1026400000F0C8F92046FEF799FB71E55450204E82
:1026500065656420726561646A75737421000000A9
:1026600000000020546F7563682053637265656EC7
:102670002041646A757374204F4B2100B4A5C3FEDA
:10268000C6C1D0A3D7BCCDEAB3C9A3AC4F4BA3A15D
:10269000A3A100002DE9F84304460D4616461D4847
:1026A000068004F10D0082B2193880B22B4629460B
:1026B0000096FEF7EDFB05F10D0083B2193881B2EB
:1026C000224620460096FEF7E3FB681C804681B256
:1026D000601C074680B2FEF729FC1FFA88F1601ED5
:1026E000804680B2FEF722FC681E814681B2B8B2F5
:1026F000FEF71CFC1FFA89F11FFA88F0FEF716FCA2
:1027000001B0334629462046BDE8F0430622FEF7D5
:102710001BBC00000000002000B587B0182200217B
:1027200001A800F045FB9DF815009DF816100A2938
:1027300000D110B1002007B000BD174901984860D2
:10274000081D90ED000ADFED150A001DB8EEC01A55
:1027500081EE200A80ED090A9DED020AB8EEC00A5A
:1027600080EE201A80ED0A1A9DED030AB8EEC00A29
:1027700080ED0B0A9DED040A81ED010AB8EEC00A56
:1027800080ED0C0A002280F83420D02008709020C0
:1027900048700120CFE700000400002020BCBE4CA0
:1027A0007CB501212620FFF7B5F806200090002017
:1027B0008DF804008DF8060003208DF80500012433
:1027C0008DF807401A4D69462846FEF75AFA0094DC
:1027D0008DF8044069462846FEF753FA60030090DE
:1027E0008DF8044069461348FEF74BFAE00200906A
:1027F0008DF8044069461048FEF743FA0F49A1F1ED
:102800000A000C46054600F08DF82146284600F0E7
:1028100089F8FFF781FF08B100207CBD4FF6FF70FB
:10282000FEF7ACFAFFF7D6FBFFF776FF01207CBD81
:102830000004024000080240001402402200002070
:102840002DE9F047002500241A4EA046C6F88082E4
:102850001949C1F8AC82DFF86490C9F8B48200F07D
:1028600049F9062004F0B0FDC6F88082012004F08A
:10287000ABFD0127C6F88072012004F0A5FDC6F863
:1028800080824FF6FF7A0AEA4404C6F8808201206B
:1028900004F09AFDC6F88072D6F8080208B1641CEC
:1028A000A4B26D1CEDB2102DEDD32009C9F8B4729D
:1028B000BDE8F08700804042008042420000414273
:1028C000FEB5064600246D463046FFF7B9FF25F8F1
:1028D0001400641CA4B2052CF6D30021481C044645
:1028E00080B20BE035F8113035F81020934203D94F
:1028F00025F8112025F81030401C80B20528F1D3AE
:10290000A1B20429EAD30021012035F81020114496
:1029100089B2401C80B20428F7D30320B1FBF0F049
:10292000FEBD00002DE9F04104460F46064D287813
:10293000FFF7C6FF06466878FFF7C2FF268038809B
:102940000120BDE8F0810000040000202DE9FF41D6
:1029500006460F4602A903A8FFF7E4FF88B36946BD
:1029600001A8FFF7DFFF68B3BDF80420BDF80C3005
:102970009A4203D802F13200834205D3934226D80B
:1029800003F13200824222D2BDF80050BDF8084067
:10299000A54203D805F13200844204D3AC4216D8D4
:1029A0003234A54213D2981840083080BDF8080090
:1029B000BDF80010084440083880012004B0BDE88C
:1029C000F08100E001E00020F8E70020F6E70020B9
:1029D000F4E7000000B587B01848DFED190A011FC1
:1029E00090ED090A20EE200ABDEEC00A81ED000A32
:1029F0008DED010A90ED0A0A20EE200ABDEEC00A14
:102A00008DED020A90ED0B0ABDEEC00A8DED030AB2
:102A100090ED0C0ABDEEC00A81ED000A8DED040AAE
:102A2000002180F834108DF815100A208DF816005A
:102A3000182201A800F018FA07B000BD0C00002011
:102A400020BCBE4C10B529490968294C002908D082
:102A500094F8200001063DD520F0800084F8200085
:102A60003FE00200224800F1160100F10C0002D004
:102A7000FFF76CFF22E0FFF769FFF8B1A08994ED42
:102A80000B0A00EE900A94ED091AF8EE600A01EEC6
:102A9000200ABCEEC00A10EE100AA081E08A94ED74
:102AA0000C0A00EE900A94ED0A1AF8EE600A01EEA4
:102AB000200ABCEEC00A10EE100AE08294F8200052
:102AC00000060ED4C02084F82000A089A082E08AED
:102AD000E08306E00020A082E0834FF6FF70A08133
:102AE000E08294F8200000F0800010BD0482404293
:102AF0000C0000202DE9F04705460024DFF8348063
:102B00000D4E00274FF00109280602D5C8F8AC92F7
:102B100001E0C8F8AC726806050EC6F880720120A4
:102B200004F052FCC6F88092641CE4B2082CEBD38B
:102B3000BDE8F087008042420080404270B5164CEC
:102B400040F22551204600F03DF800280ED02046E6
:102B500000F0D2F8C1B2114A1088030406D444042C
:102B60004FF0000307D50A2901D0138070BD40F44F
:102B70000040108070BD0D290AD0094DC0F30D042E
:102B80002955401C80B21080C728F3D9138070BD2E
:102B900040F48040108070BD001001404A000020C9
:102BA000321100208A05C94301807047002904D0F2
:102BB000818941F4005181817047818921F400515C
:102BC0008181704770B5002440F66A12C1F3421348
:102BD00001F01F05012606FA05F2012B0CD0022B8D
:102BE0000DD0838A1340090A8E40008830400BB113
:102BF00000B10124204670BD83891340F3E7038AA6
:102C00001340F0E710B540F66A13C1F3421301F028
:102C10001F040121A140012B07D0022B07D0143043
:102C20003AB102680A43026010BD0C30F8E7103078
:102C3000F6E702688A43026010BD00007FB50446D3
:102C40000D46208A20F44051E88808432082A0895C
:102C500041F20C618843A9882A8911436A89024399
:102C60001143A181A08A20F44071A8890843A08261
:102C70006846FEF795FE1E48844202D01D488442F5
:102C800001D1039800E00298A189090408D500EB5E
:102C9000C00101EB001029684900B0FBF1F007E02A
:102CA00000EBC00101EB001029688900B0FBF1F0D6
:102CB0006422B0FBF2F109010B096FF018056B43B8
:102CC00000EB8300A3891D044FF0320307D503EB0B
:102CD000C000B0FBF2F000F00700084306E003EB91
:102CE0000010B0FBF2F000F00F00084320817FBD20
:102CF00000100140001401408088C0F308007047B4
:102D0000FEE7000070B5044621460FA000F056F91A
:102D1000240300F0FBF800F0A1F80D4D002028601E
:102D20002020FEF7EFFEC4F30740FEF7EBFEC4F3EE
:102D30000720FEF7E7FEE0B2FEF7E4FE0120286080
:102D4000BDE8704000F08AB866653A25780D0A0043
:102D5000B88240421CB501210220FEF7DBFD0121B3
:102D60004020FEF7D7FD4FF48040009001248DF8FD
:102D7000044000208DF8060003208DF805008DF832
:102D8000074069460748FDF77CFF07480460FEF7E7
:102D900057FE0020FEF7D0FE00F032F8034908800D
:102DA0001CBD000000040240B882404244000020E4
:102DB0002DE9F04105460C461646104F0020C7F895
:102DC000B8020320FEF79EFEC4F30740FEF79AFE0A
:102DD000C4F30720FEF796FEE0B2FEF793FE002450
:102DE00005E0FF20FEF78EFE2855641CA4B2B44215
:102DF000F7D30120C7F8B802BDE8F0810080404257
:102E000070B50D4D00242C609020FEF77BFE002055
:102E1000FEF778FE0020FEF775FE0020FEF772FE3A
:102E2000FF20FEF76FFE44EA0024FF20FEF76AFE53
:102E300020430121296070BDB882404210B5064C84
:102E4000002020600520FEF75DFEFF20FEF75AFE01
:102E50000121216010BD0000B882404210B5FFF78B
:102E6000EDFFC007FBD110BD2DE9F05F80468A461B
:102E70001546DFF894904FEA1A37CAF30B06C6F5E9
:102E80008054A54233D82C4631E0311819F801108E
:102E9000FF2903D1401C80B2A042F6D3A04214D235
:102EA0003846FFF72FFF002006E0821918F80010BF
:102EB00009F80210401C80B2A042F6D359464FF4E4
:102EC0008052484600F02EF804E022465146404623
:102ED00000F028F8A54214D07F1C0026A044A2448C
:102EE000281B85B24FF48054A54200D82C464FEAE7
:102EF000073B4FF4805259464846FFF759FF0020E0
:102F0000CAE7BDE8F09F00003201002010B5044C74
:102F1000002020600620FEF7F5FD0120206010BD96
:102F2000B88240422DE9F04107460E461546F0B200
:102F3000C0F58074A54200D82C464FF4807807E095
:102F400027442644281B85B24446A54200D82C4677
:102F500022463146384600F005F8A542F0D1BDE8DA
:102F6000F08100002DE9F04105460C461646FFF7BA
:102F7000CDFF114F0020C7F8B8020220FEF7C2FDB6
:102F8000C4F30740FEF7BEFDC4F30720FEF7BAFD09
:102F9000E0B2FEF7B7FD002404E0285DFEF7B2FDC5
:102FA000641CA4B2B442F8D30120C7F8B802BDE84B
:102FB000F041FFF753BF0000008040420FB4054BC3
:102FC00010B503A9044A029800F0F2F910BC5DF8AC
:102FD00014FB000065B900084C00002000B52DED81
:102FE000048BB0EE409AF0EE609A83B051EC190B6E
:102FF000FDF7D6FA41EC180B18EE100A18EE901AED
:103000008DED008B002818BF0120084320F0004000
:10301000C0F17F6000F1E040C00F14D019EE101A2B
:1030200019EE900A8DED009B002918BF012108437D
:1030300020F00040C0F17F6000F1E040C00F04BF0D
:10304000012000F017F8B0EE480A03B0F0EE680A6D
:10305000BDEC048B00BD02E008C8121F08C1002AA5
:10306000FAD170477047002001E001C1121F002A09
:10307000FBD1704701490860704700002001002023
:1030800070B5044600256FF02F0608E02068411C4B
:103090002160007805EB850106EB410145182068A9
:1030A000007800F02DF80028F0D1284670BD70B5EA
:1030B0000D461446002B03D1214613F029F903468F
:1030C00003FB05F0142C0ED0E11F03290AD8072CAE
:1030D0000DD0082C0DD0092C0DD00A2C0DD00021BC
:1030E00000EB810070BD590801FB050070BD022195
:1030F000F6E70421F4E71021F2E74FF48071EFE7DF
:103100003038092801D801207047002070472DE988
:10311000FF5FDDE910BCDDE912A7DDE90E64149D57
:103120004FF030085FEA85791ED46FB15FEAC57948
:103130000AD005F00C0959EA0B0905D07F1E03E0FF
:10314000A146641C06F80980544506D2202CF7D30A
:1031500003E0A146641C06F809805FEAC57903D044
:10316000BC4201D2202CF4D35FEAC5693CD55FEAAA
:1031700045590AD44CB1544501D0BC4205D1641E16
:103180001CB1BCF1100F00D1641EBCF1100F0BD1AB
:103190005FEA856908D4202C06D2A4464FF078094E
:1031A000641C06F80C9019E0BCF1100F0BD15FEA1B
:1031B000856908D5202C06D2A4464FF05809641C16
:1031C00006F80C900AE0BCF1020F07D1202C05D2C2
:1031D000A4464FF06209641C06F80C90202C03D220
:1031E000A446641C06F80C80202C1CD2BBF1000FF6
:1031F00006D0A4464FF02D08641C06F80C8012E09F
:103200005FEA457C06D5A4464FF02B08641C06F8FF
:103210000C8008E05FEA057C05D5A4464FF0200845
:10322000641C06F80C80CDE90275CDE9006400F05D
:1032300087F804B0BDE8F09F2DE9F04F8FB0DDE9CD
:103240001BABDDE919971D9E189C0025002C01D1B0
:1032500026F010065FEA465C0DF11C0800D5FCB1B3
:10326000B4FBF7FC07FB1C4C0CF0FF0CBCF10A0F85
:1032700002D20CF1300C0AE05FEA866E02D54FF004
:10328000410E01E04FF0610EF444ACF10A0CAE4681
:103290006D1C08F80EC0B4FBF7F40CB1202DDFD381
:1032A000CDE904ABCDE90085CDE902970696FFF79D
:1032B0002EFF0FB0BDE8F08F2DE9FF4F8FB0DDE995
:1032C0001D1BDDE922A9DDE92056249F1C9800245E
:1032D00050EA010201D127F010077A050DF11C0810
:1032E00002D550EA010218D02A463346FCF768FF9F
:1032F000D2B20A2A01D2303206E0BB0601D5412300
:1033000000E061231A440A3A2346641C08F80320AB
:1033100050EA010201D0202CE6D3CDE904A9CDE981
:103320000084CDE902B50FA806970FC8FFF7EFFE9E
:1033300013B0BDE8F08F9A4200D2885470477047AE
:103340002DE9FF5F0746DDE90EB5DDE9108914467A
:10335000A24609F0020009F00101084313D12E46EC
:1033600006E02246641C2020039B0199B847761C86
:103370004645F6D307E02246641C6D1E039B1BF8EE
:1033800005000199B847002DF5D15FEA897006D490
:1033900009E02246641C2020039B0199B847A4EB56
:1033A0000A004045F5D304B02046BDE8F09F000078
:1033B0002DE9FF4F8DB09B460F460446002606E0E0
:1033C00025280BD05A460F999047641C761C20780C
:1033D0000028F5D111B03046BDE8F08F0025A84691
:1033E0000122984900E0054314F8013F203B02FA0E
:1033F00003F00842F7D120782E2817D114F8010FD6
:1034000045F004052A280ED06FF02F022078A0F195
:10341000300109290AD808EB880102EB410100EBD1
:103420000108641CF2E757F8048B641C20786C28B0
:103430000DD004DC4C2812D06A2811D104E0742885
:103440000DD07A280CD10AE045F4001507E0617828
:1034500045F48015814202D1641C05F58015641C79
:103460002278692A45D008DC002AB3D0582A69D0CE
:10347000632A10D0642A08D13BE0702A67D0732AEF
:1034800013D0752A5CD0782A5CD010465A460F9922
:103490009047761CD3E017F8040B8DF8000000204D
:1034A0008DF80100E946012003E057F8049B4FF036
:1034B000FF3069074FF0000501D40AE06D1C454557
:1034C0000DDA8542FADB19F805100029F6D106E07D
:1034D0006D1C8542FCDB19F805100029F8D12E443B
:1034E00004E019F8010B5A460F9990476D1EF8D267
:1034F000A5E00A200021CDE90801C5F30250022809
:103500000DD001CFC117031E71F100030DDA4FF08A
:10351000000CD0EB0C006CEB01012D2308E0FF1D2B
:1035200027F00707F7E80201EDE72B0504D52B2369
:103530008DF8283001233BE0EB0739D02023F7E753
:103540000A2000E010200021CDE9080107E010204A
:10355000002145F00405CDE908014FF00808C5F346
:10356000025002280FD001CF00214FF0000A2B0794
:103570001FD5702A0DD0DDE908C38CF0100C5CEA71
:10358000030C0CD015E0FF1D27F00707F7E8020138
:10359000EBE740228DF828204FF0010A0BE050EABB
:1035A000010306D030238DF828308DF8292002231E
:1035B0009A46582A04D024A20DF120090B9209E062
:1035C00026A2F9E7DDE90823FCF7FAFD0B9B9B5CDB
:1035D00009F8013D50EA0102F4D1ADEB09002030B9
:1035E0000890680701D44FF001080899884502DD6A
:1035F000A8EB010000E000208046002506E00AA8B4
:103600005A46405D0F9990476D1C761C5545F6DB78
:1036100004E030205A460F999047761CB8F100011B
:10362000A8F10108F5DC05E019F8010B5A460F99DD
:103630009047761C0899481E08900029F4DC641C09
:10364000C5E6000009280100303132333435363701
:1036500038396162636465660000000030313233DE
:10366000343536373839414243444546000000007E
:1036700070B590B0064600241F4D2878002805D16B
:1036800024F084F8FCF708FE0120287000226D4623
:10369000002106EBC20030F8113033B925F82420A0
:1036A00005EB84035980641CA4B2491C89B2042927
:1036B000F1D3521C92B2042AEAD3002C1AD0FCF7A0
:1036C000E1FD90FBF4F104FB110080B235F82040DD
:1036D00005EB80004588FCF7D5FD0A2190FBF1F24F
:1036E00001FB1200092190FBF1F0401C06EBC40124
:1036F00021F8150010B070BD1801002070B5044607
:103700000D46002C12D095B12946204600F01BFF33
:1037100070B16168006910F0B1FB0646E16B2846A4
:103720008847E1680844E060304670BDFEE7FEE788
:10373000002070BD2DE9FF410546DDF828800E46CA
:1037400014461F463246214668460EF073FF002895
:103750001BD001986168401A08FB0050009922684C
:10376000891A0D18009831683844441A68460EF0DA
:103770004FFF002107E0625C6B5C1A44FF2A00D90E
:10378000FF226254491C8142F5D3BDE8FF8110B588
:103790000024002808D000F0C0FEB0F5803F03D21E
:1037A0000C2800D80C200446204610BD2DE9F04F0F
:1037B00087B08346DBF80480DBF8080006909BF8AE
:1037C00021A0DBF80040DBF80C90DBF81850DBF8A8
:1037D0001C000590DBF81060DBF81400049002A8D0
:1037E00011F0B3FB9BF8220010B100200190BBE068
:1037F000E6B9BAF1FD0F19D3002711E0002609E060
:1038000005EB460004EB4601008802AA009011F087
:10381000F9F8761C4645F3DB4C44059805447F1CBB
:1038200006988742EADB07B0BDE8F08F16BBBAF115
:10383000FD0F1FD2002719E0002611E005EB46001E
:10384000008800909DF8010000FB0AF0000A8DF846
:10385000010004EB460102AA009811F0D3F8761C8F
:103860004645EBDB4C44059805447F1C069887428F
:10387000E2DBD8E73EB3BAF1FD0F24D34FF0000AE4
:103880001DE0002712E005EB4700008800909DF83E
:103890000100F15D10FB01F0000A8DF8010004EB5E
:1038A000470102AA009811F0ADF87F1C4745EADBFA
:1038B0004C4405980544049806440AF1010A069808
:1038C0008245DEDBAFE7002EADD0BAF1FD0FAAD204
:1038D0004FF0000B1FE0002714E005EB47000088C5
:1038E00000909DF80100F15D10FB01F000FB0AF073
:1038F000000C8DF8010004EB470102AA009811F0BA
:1039000081F87F1C4745E8DB4C4405980544049842
:1039100006440BF1010B06988345DCDB83E70027A7
:1039200017E005EB47000088009016B39DF80100F2
:10393000F15D10FB01F000FB0AF0000C8DF80100B6
:103940009BF8222004EB470002AB009901F0B0FE87
:103950007F1C4745E5DB0EB1049806444C440598AE
:1039600005440198401C0190069901988842D6DBD5
:1039700059E79DF8010000FB0AF0000A8DF80100EC
:10398000DEE72DE9F04F8BB08346DBF80490DBF8DF
:1039900008000A909BF82180DBF80050DBF80C004F
:1039A0000990DBF81840DBF81C000890DBF8106089
:1039B000DBF8140007909BF82200002805D001A82E
:1039C00011F0D8FA00200690CBE00EBBB8F1FD0F45
:1039D0001ED34FF0000815E0002700260AE004EB94
:1039E000460005EB8701427814F8160011F05AF9E9
:1039F0007F1C761C4E45F2DB099805440898044468
:103A000008F101080A988045E6DB0BB0BDE8F08FAD
:103A100016BBB8F1FD0F1FD24FF0000A18E00027C7
:103A200000260DE004EB460005EB8701407800FB23
:103A300008F0020A14F8160011F034F97F1C761C05
:103A40004E45EFDB09980544089804440AF1010A41
:103A50000A988245E3DBD8E73EB3B8F1FD0F24D3E3
:103A60004FF0000A1DE04FF0000800270FE004EBC4
:103A70004700F15D407810FB01F0020A05EB880178
:103A800014F8170011F00EF908F101087F1C4F45DA
:103A9000EDDB0998054408980444079806440AF1A8
:103AA000010A0A988245DEDBAFE7002EADD0B8F1FF
:103AB000FD0FAAD24FF0000B1FE04FF0000A0027C5
:103AC00011E004EB4700F15D407810FB01F000FBD2
:103AD00008F0020C05EB8A0114F8170011F0E2F867
:103AE0000AF1010A7F1C4F45EBDB09980544089851
:103AF0000444079806440BF1010B0A988345DCDB6C
:103B000083E74FF0000A00271FE014F817008DF834
:103B100016008DF815008DF814003EB304EB470035
:103B200016F80A10407810FB01F000FB08F0000CBA
:103B30008DF817009BF8222005EB8A0001AB059950
:103B400001F0E1FD0AF1010A7F1C4F45DDDB0EB1FA
:103B50000798064409980544089804440698401CB0
:103B600006900A9906988842CBDB4EE704EB4700A3
:103B7000407800FB08F0000A8DF81700DAE72DE91D
:103B8000F04F89B08346DBF80480DBF8080007902B
:103B90009BF821A0DBF80070DBF80C000690DBF846
:103BA0001840DBF81C000590DBF81050DBF814001F
:103BB0000490DBF82400C11700EB517121F00701DC
:103BC000A0EB01099BF82200002802D000200290FF
:103BD0002AE1B5BBBAF1FD0F34D34FF0000B2AE058
:103BE000002600251FE006EB090A5146384608F07A
:103BF0004AF8C0EB0020019004EB450001A942788F
:103C000014F8150011F06BF89DF804007F2804D912
:103C10005146384629F05AFA03E05146384603F037
:103C200037F9761C6D1C4545DDDB06980744059881
:103C300004440BF1010B07988345D1DB09B0BDE8C3
:103C4000F08FFFE7CDBBBAF1FD0F37D20020029015
:103C50002EE00026002522E006EB090B59463846E7
:103C600008F011F8C0EB0020019004EB450001A919
:103C7000407800FB0AF0020A14F8150011F02FF842
:103C80009DF804007F2804D95946384629F01EFAC9
:103C900003E05946384603F0FBF8761C6D1C454599
:103CA000DADB06980744059804440298401C029009
:103CB000079902988842CCDBC0E7FFE7EDB3BAF181
:103CC000FD0F3DD30020029033E04FF0000A0026A4
:103CD00024E00AEB090B5946384607F0D4FFC0EB45
:103CE0000020019004EB4600A95D407810FB01F034
:103CF000020A14F8160001A910F0F1FF9DF8040063
:103D00007F2804D95946384629F0E0F903E059469E
:103D1000384603F0BDF80AF1010A761C4645D8DBA7
:103D20000698074405980444049805440298401CEA
:103D3000029007990298884200E001E0C5DB7DE728
:103D4000002DB9D0BAF1FD0FB6D20020029035E0B7
:103D50004FF0000B002626E00BEB090138460891D6
:103D600007F091FFC0EB0020019004EB4600A95D35
:103D7000407810FB01F000FB0AF0020C14F816006A
:103D800001A910F0ACFF9DF804007F2804D9384643
:103D9000089929F09BF903E03846089903F078F870
:103DA0000BF1010B761C4645D6DB069807440598B7
:103DB0000444049805440298401C02900799029814
:103DC0008842C5DB3AE700200390002620E014F883
:103DD00016008DF806008DF805008DF8040045B337
:103DE00004EB4600A95D407810FB01F000FB0AF0EF
:103DF000000C8DF8070003989BF8223000EB0901B6
:103E00003846019A01F0D6FC0398401C0390761CBA
:103E10004645DCDB0DB10498054406980744059837
:103E200004440298401C0290079902988842CADB19
:103E300004E704EB4600407800FB0AF0000A8DF826
:103E40000700D8E72DE9F04F87B08346DBF80490F0
:103E5000DBF8080006909BF82180DBF80050DBF8C7
:103E60000C000590DBF81840DBF81C000490DBF830
:103E70001060DBF8140003909BF82200002802D0A9
:103E800000200290C0E006BBB8F1FD0F1DD34FF03B
:103E9000000814E00027002609E004EB4600E919B9
:103EA000427814F8160010F029FF7F1C761C4E454E
:103EB000F3DB059805440498044408F101080698CA
:103EC0008045E7DB07B0BDE8F08F0EBBB8F1FD0F12
:103ED0001ED24FF0000A17E0002700260CE004EB8A
:103EE0004600E919407800FB08F0020A14F81600B1
:103EF00010F004FF7F1C761C4E45F0DB059805444E
:103F0000049804440AF1010A06988245E4DBD9E7E3
:103F10003EB3B8F1FD0F24D34FF0000A1DE04FF07F
:103F2000000800270FE004EB4700F15D407810FB2C
:103F300001F0020A05EB080114F8170010F0DEFE8C
:103F400008F101087F1C4F45EDDB059805440498F6
:103F50000444039806440AF1010A06988245DEDB10
:103F6000B0E7002EAED0B8F1FD0FABD24FF0000B92
:103F70001FE04FF0000A002711E004EB4700F15D5D
:103F8000407810FB01F000FB08F0020C05EB0A0181
:103F900014F8170010F0B2FE0AF1010A7F1C4F4519
:103FA000EBDB0598054404980444039806440BF1A0
:103FB000010B06988345DCDB84E70027BA4617E04F
:103FC00014F81A008DF806008DF805008DF804002D
:103FD000FEB1F05D00FB08F0000A8DF807009BF8C9
:103FE0002220E819019901F01FFC7F1C0AF1010A47
:103FF000CA45E5DB0EB103980644059805440498CC
:1040000004440298401C0290069902988842D4DB2E
:1040100058E78DF80780E2E72DE9F04F85B0834639
:10402000DBF804A0DBF8080004909BF82180DBF8A3
:104030000040DBF80C000390DBF81850DBF81C00A4
:104040000290DBF81070DBF8140001909BF822005E
:10405000002802D0002000904EE11FBBB8F1FD0FF8
:1040600020D34FF0000817E0002600270CE005EBF6
:10407000470034F81610427815F8170010F0C7FD05
:1040800024F81600761C7F1C5645F0DB0398044488
:104090000298054408F1010804988045E4DB05B066
:1040A000BDE8F08F27BBB8F1FD0F21D24FF000091A
:1040B0001AE0002600270FE005EB470034F8161041
:1040C000407800FB08F0020A15F8170010F09FFD79
:1040D00024F81600761C7F1C5645EDDB039804443B
:1040E0000298054409F1010904988145E1DBD6E70E
:1040F00047B3B8F1FD0F25D34FF000091EE00026AD
:10410000B04611E005EB4800B95D407810FB01F0C6
:10411000020A34F8161015F8180010F078FD24F88B
:104120001600761C08F101085645EBDB03980444A1
:10413000029805440198074409F101090498814552
:10414000DDDBACE7002FAAD0B8F1FD0FA7D24FF00E
:10415000000B20E00026B14613E005EB4900B95DF5
:10416000407810FB01F000FB08F0020C34F8161048
:1041700015F8190010F04BFD24F81600761C09F113
:1041800001095645E9DB0398044402980544019867
:1041900007440BF1010B04988345DBDB7FE7002626
:1041A000B1469CE015F81910C80889089BF8222030
:1041B000012A1DD0022A38D0032A98D134F81620BB
:1041C000D30A43434FEA531C4FF6FF7303EACC2351
:1041D000C2F3451C0CFB01FC4FEA9C1103EB41119F
:1041E00002F01F02424301EB521080B2DFB348E0FD
:1041F00034F8162000EBD2231F2B00D31F234FF6D9
:10420000FF7C0CEAC323C2F3451C61443F2900D361
:104210003F2103EB411189B202F01F0210441F2815
:1042200000D31F20084480B2E0E734F81620C0EB2A
:10423000D223002B00DC00234FF6FF7C0CEAC323C3
:10424000C2F3451CACEB0101002900DC002103EBAB
:10425000411189B202F01F02101A002800DC002070
:10426000084480B2C2E7FFE7B8F1FD0F09D305EBC0
:1042700049014A7834F8161010F0A8FB24F816000B
:104280002AE07FB9B8F1FD0F0CD205EB490149785E
:1042900001FB08F10A0A34F8161010F097FB24F815
:1042A000160019E0B8F1FD0F07D3BA5D34F8161007
:1042B00010F08CFB24F816000EE005EB4902B95D06
:1042C000527811FB02F101FB08F10A0C34F81610C8
:1042D00010F07CFB24F81600761C09F10409564501
:1042E000FFF660AF03980444029805440FB10198AB
:1042F00007440098401C0090049900988842FFF6FB
:104300004EAFCCE62DE9F34F87B089460798D0F839
:104310000480079880680690079890F821A0079875
:1043200005680798C0680590079884690798C06970
:10433000049007980669079840690390079890F8D9
:104340002200002802D000200290C8E006BBBAF18B
:10435000FD0F1DD34FF0000A14E00027002609E0EE
:1043600004EB4600E919427814F8160010F07FFCBF
:104370004F44761C4645F3DB0598054404980444F5
:104380000AF1010A06988245E7DB09B0BDE8F08F23
:104390000EBBBAF1FD0F1ED24FF0000B17E0002745
:1043A00000260CE004EB4600E919407800FB0AF017
:1043B000020A14F8160010F05AFC4F44761C4645C9
:1043C000F0DB05980544049804440BF1010B0698B2
:1043D0008345E4DBD9E736B3BAF1FD0F23D34FF0C1
:1043E000000B1CE04FF0000A00270EE004EB470032
:1043F000F15D407810FB01F0020A05EB0A0114F8A8
:10440000170010F034FCCA447F1C4745EEDB0598CA
:10441000054404980444039806440BF1010B0698E4
:104420008345DFDBB1E7002EAFD0BAF1FD0FACD290
:10443000002002901FE04FF0000B002710E004EB7B
:104440004700F15D407810FB01F000FB0AF0020C20
:1044500005EB0B0114F8170010F009FCCB447F1C8E
:104460004745ECDB0598054404980444039806444A
:104470000298401C0290069902988842DBDB84E790
:104480004FF0000B00271EE014F817008DF8040011
:104490008DF805008DF8060036B304EB470016F8DA
:1044A0000B10407810FB01F000FB0AF0000C8DF8B7
:1044B00007000798019990F8222005EB0B0001F006
:1044C000DAF9CB447F1C4745DEDB0EB10398064486
:1044D00005980544049804440298401C02900699EB
:1044E00002988842CCDB50E704EB4700407800FBA1
:1044F0000AF0000A8DF80700DBE70A46491E0A4267
:1045000000D0FEE70140401A70470844401E4A1E92
:104510009043114200D0FEE770474A1E114200D07E
:10452000FEE70844401E9043704710B540201AF043
:104530005BFE044634B12046402200211AF088FF79
:10454000204610BDFEE72DE9FC4104460F46002C35
:104550002DD06FB304F124003946054620F0B8F899
:10456000019008B30669616830460FF087FC804609
:104570003946304662681AF0B7FE04F130001AF08E
:1045800038FD0090A8B1042201A91AF0ADFE204622
:10459000019907F0D7FF042269461AF0A5FE2146CB
:1045A000404662680FF07DFC0198BDE8FC81FEE7A3
:1045B000FEE72846019920F050F800200190F3E72B
:1045C0002DE9F04104460F460120E0630025002656
:1045D00009E01AA121F05EF908B16D1C02E0E06B60
:1045E000401CE063761C57F8260010B101780029C2
:1045F000EFD1A06BA8421FD0206B002610B117F09E
:10460000B5F92663606B10B117F0B0F96663280145
:104610001AF0EAFD206338B168001AF0E5FD606326
:1046200018B1216B11B102E0FEE7FEE700256A0038
:1046300000211AF00DFFA563BDE8F0810A0000001B
:1046400070B50C46C07A00F00700062806D2DFE8F5
:1046500000F0050306060606144600E0402404EBBD
:104660004400C01C20F00305E01C20F00300284497
:104670000C301AF0B9FD38B100F10C0101602918B5
:104680000C314160846070BDFEE77CB505460C4688
:1046900005F1140120460EF03FF868B100208DF8B6
:1046A000000001946A46172128461FF0FBF89DF888
:1046B000000018B101207CBD01207CBD00207CBD24
:1046C00010B5044694F85400C10705D1616C19B1C6
:1046D0004A1C01D0491E6164626CE16BAAB909B140
:1046E000C20712D0214614481AF039FD00F026F80E
:1046F000216909B120468847616909B12046884788
:104700002046BDE8104017F031B9226C5242626376
:10471000002910D0C20702D1A26B52426263421C30
:1047200062F3000084F85400606AE26A6262E06248
:10473000206B2163E06310BDA812002010B50A4C65
:10474000012084F8A40004F1AC001AF024FC28B184
:10475000D4F8A800BDE8104023F088B9D4F8A80028
:10476000BDE8104023F06EB9FC1100202DE9F041A6
:10477000404E96F8A500002809D0002086F8A50034
:104780003C48AC3007461AF006FC04466DE00120B8
:10479000F4E7206D22F0EEFF616B0844606322F0C5
:1047A000F5FF2065002086F8A40094F8540096F8E0
:1047B000A510C0F340028A424AD061F3410084F858
:1047C000540041071ED4616B00291BDB000709D48C
:1047D000A16939B120468847616A01446162E16A92
:1047E0000844E062204625F007FBE16809B1204655
:1047F000884794F8540040F0040084F854002046A0
:1048000025F002FA616B002922DB206B814200DD7A
:104810006063216A204688470546A16AA9420DD0F7
:10482000A562626812B129462068904796F8A400F4
:1048300020B9A26812B129462046904796F8A400F4
:1048400030B9D4E90C10884202DB2046FFF738FF6C
:1048500096F8A40020B138461AF09DFB044604E007
:10486000214638461AF0AEFB0446002C91D1BDE833
:10487000F0810000FC11002070B504460D46606810
:10488000002802D02946FFF7F7FF2268002A04D04B
:1048900029462046BDE87040104770BD70B50646F9
:1048A0000D462C682168002907D0206AC00204D573
:1048B000296029463046FFF7F1FF2C602946304633
:1048C000BDE87040FFF7D8BF0DF0CEBB0DF013BCB4
:1048D0002DE9F04F8BB08346DBF80480DBF808004D
:1048E00008909BF821A0DBF80040DBF80C90DBF887
:1048F0001850DBF81C000790DBF81060DBF81400A0
:10490000069004A810F021FB9BF8220010B10020B3
:104910000390DAE036BBBAF1FD0F23D34FF0000A63
:104920001AE0002611E005EB86073868019010F0C8
:1049300038F88DF80800F8788DF8090004EB460186
:1049400004AA029810F05EF8761C4645EBDB4C4456
:10495000079805440AF1010A08988245E1DB0BB08B
:10496000BDE8F08F3EBBBAF1FD0F24D24FF0000B33
:104970001DE0002614E005EB86073868019010F072
:1049800010F88DF80800F87800FB0AF0000A8DF89E
:10499000090004EB460104AA029810F033F8761CD3
:1049A0004645E8DB4C44079805440BF1010B089899
:1049B0008345DEDBD3E766B3BAF1FD0F29D34FF0B1
:1049C000000B22E0002717E005EB870ADAF8000069
:1049D00001900FF0E6FF8DF808009AF80300F15DF2
:1049E00010FB01F0000A8DF8090004EB470104AA4E
:1049F000029810F007F87F1C4745E5DB4C44079808
:104A00000544069806440BF1010B08988345D9DB51
:104A1000A5E7002EA3D0BAF1FD0FA0D24FF0000BF6
:104A200024E0002719E005EB87000A900068019058
:104A30000FF0B7FF8DF808000A98F15DC07810FB01
:104A400001F000FB0AF0000C8DF8090004EB4701AF
:104A500004AA02980FF0D6FF7F1C4745E3DB4C44C5
:104A600007980544069806440BF1010B0898834506
:104A7000D7DB74E700271DE005EB8700099000688D
:104A800001900FF08EFF8DF808000998C0788DF81E
:104A90000900FEB1F15D484300FB0AF0000C8DF8FF
:104AA00009009BF8222004EB470004AB029900F0B8
:104AB000FFFD7F1C4745DFDB0EB1069806444C44E2
:104AC000079805440398401C03900899039888426E
:104AD000D0DB44E700FB0AF0000A8DF80900E0E7AC
:104AE0002DE9F04F8DB08346DBF80480DBF8080039
:104AF0000B909BF821A0DBF80040DBF80C90DBF872
:104B00001850DBF81C000A90DBF81060DBF814008A
:104B1000099004A810F02EFA9BF8220010B1002092
:104B20000390D3E016BBBAF1FD0F1FD3002717E0A7
:104B300000260FE004EB860A05EB8600DAF8001089
:104B40000191006804AA009010F012F80290CAF8CF
:104B50000000761C4645EDDB4C440A9805447F1C5A
:104B60000B988742E4DB0DB0BDE8F08F46BBBAF18D
:104B7000FD0F25D200271FE0002617E005EB860079
:104B8000006808909DF8230000FB0AF0000A8DF8E9
:104B9000230004EB860B04AADBF8001001910898AF
:104BA0000FF0E6FF0290CBF80000761C4645E5DBEF
:104BB0004C440A9805447F1C0B988742DCDBD2E703
:104BC0006EB3BAF1FD0F2AD34FF0000A23E000279D
:104BD00018E005EB8700006808909DF82300F15D60
:104BE00010FB01F0000A8DF8230004EB870B04AAE8
:104BF000DBF80010019108980FF0BAFF0290CBF893
:104C000000007F1C4745E4DB4C440A9805440998A2
:104C100006440AF1010A0B988245D8DBA3E7002E6F
:104C2000A1D0BAF1FD0F9ED24FF0000B25E0002776
:104C30001AE005EB8700006808909DF82300F15DFD
:104C400010FB01F000FB0AF0000C8DF8230004EBD0
:104C500087010C91096804AA019108980FF088FF58
:104C600002900C9908607F1C4745E2DB4C440A988F
:104C70000544099806440BF1010B0B988345D6DBDC
:104C800071E7002717E005EB87000068089016B36E
:104C90009DF82300F15D10FB01F000FB0AF0000C11
:104CA0008DF823009BF8222004EB870004AB0899C1
:104CB00000F029FD7F1C4745E5DB0EB1099806444D
:104CC0004C440A9805440398401C03900B990398A0
:104CD0008842D6DB47E79DF8230000FB0AF0000A74
:104CE0008DF82300DEE72DE9F04F8BB08346DBF82B
:104CF0000480DBF8080007909BF821A0DBF8006037
:104D0000DBF80C000690DBF81840DBF81C0005907F
:104D1000DBF81050DBF814000490DBF82400C11716
:104D200000EB517121F00701A0EB01099BF8220073
:104D3000002802D00020039027E1D5BBBAF1FD0F77
:104D400038D34FF0000A2EE0002524E004EB850B59
:104D5000DBF8000000900FF024FE029005EB09073D
:104D60003946304606F08FFFC0EB002001909BF8DB
:104D7000032001A902980FF0B2FF9DF804007F28DC
:104D800004D93946304628F0A1F903E039463046C7
:104D900002F07EF86D1C4545D8DB06980644059860
:104DA00004440AF1010A07988245CDDB0BB0BDE847
:104DB000F08FFFE7DDBBBAF1FD0F39D24FF0000BEA
:104DC00031E0002527E004EB85000A9000680090A0
:104DD0000FF0E7FD029005EB09073946304606F073
:104DE00052FFC0EB002001900A9801A9C07800FB97
:104DF0000AF0020A02980FF072FF9DF804007F2863
:104E000004D93946304628F061F903E03946304686
:104E100002F03EF86D1C4545D5DB06980644059822
:104E200004440BF1010B07988345CADBBEE7FFE79B
:104E3000EDB3BAF1FD0F3DD34FF0000B34E0002786
:104E400028E004EB87000990006800900FF0A9FDAE
:104E5000029007EB090A5146304606F014FFC0EBFA
:104E6000002001900998E95DC07811FB00F0020A6A
:104E700001A902980FF033FF9DF804007F2804D9A0
:104E80005146304628F022F903E05146304601F001
:104E9000FFFF7F1C4745D4DB069806440598044471
:104EA000049805440BF1010B0798834500E001E0ED
:104EB000C5DB7BE7002DB9D0BAF1FD0FB6D20020DB
:104EC000039037E000272AE004EB87000890006891
:104ED00000900FF066FD029007EB090B5946304633
:104EE00006F0D1FEC0EB002001900898E95DC07883
:104EF00011FB00F000FB0AF0020C01A902980FF070
:104F0000EEFE9DF804007F2804D95946304628F06B
:104F1000DDF803E05946304601F0BAFF7F1C4745F3
:104F2000D2DB069806440598044404980544039887
:104F3000401C0390079903988842C3DB36E700279B
:104F400017E004EB8700006802901DB39DF80B008A
:104F5000E95D10FB01F000FB0AF0000C8DF80B007E
:104F60009BF8223007EB09013046029A00F022FC40
:104F70007F1C4745E5DB0DB10498054406980644BF
:104F8000059804440398401C0390079903988842AD
:104F9000D5DB0BE79DF80B0000FB0AF0000A8DF84B
:104FA0000B00DDE72DE9F04F87B08346DBF8048086
:104FB000DBF8080005909BF821A0DBF80040DBF847
:104FC0000C90DBF81850DBF81C000490DBF8106044
:104FD000DBF8140003909BF82200002802D0002088
:104FE0000290B6E0FEB9BAF1FD0F1CD34FF0000AF3
:104FF00013E000260AE005EB8607386801900FF001
:10500000D0FCFA78A1190FF079FE761C4645F2DB48
:105010004C44049805440AF1010A05988245E8DBEE
:1050200007B0BDE8F08F06BBBAF1FD0F1DD24FF0FF
:10503000000B16E000260DE005EB860738680190AE
:105040000FF0AFFCF97801FB0AF10A0AA1190FF081
:1050500055FE761C4645EFDB4C44049805440BF1A5
:10506000010B05988345E5DBDAE72EB3BAF1FD0FB6
:1050700022D34FF0000B1BE0002710E005EB870A5E
:10508000DAF8000001900FF08CFC9AF80310F25D42
:1050900011FB02F10A0AE1190FF030FE7F1C4745AF
:1050A000ECDB4C4404980544039806440BF1010BD7
:1050B00005988345E0DBB3E7002EB1D0BAF1FD0FD0
:1050C000AED24FF0000B1DE0002712E005EB870188
:1050D0000691086801900FF064FC0699F25DC978AA
:1050E00011FB02F101FB0AF10A0CE1190FF006FEB7
:1050F0007F1C4745EADB4C4404980544039806446A
:105100000BF1010B05988345DEDB89E7002715E0ED
:1051100005EB87000068019006B39DF80700F15D7C
:1051200010FB01F000FB0AF0000C8DF807009BF863
:105130002220E019019900F077FB7F1C4745E7DB4F
:105140000EB1039806444C44049805440298401C50
:105150000290059902988842D8DB61E79DF8070024
:1051600000FB0AF0000A8DF80700E0E72DE9F04F98
:1051700085B08346DBF804A0DBF8080004909BF8B8
:105180002190DBF80040DBF80C000390DBF81850AE
:10519000DBF81C000290DBF81070DBF814000190C3
:1051A0009BF82200002802D00020009058E107BBA5
:1051B000B9F1FD0F1DD34FF0000814E000260027C1
:1051C00009E0E81934F81610C2780FF075FC24F8DD
:1051D0001600761C3F1D5645F3DB039804440298E5
:1051E000054408F1010804988045E7DB05B0BDE8F7
:1051F000F08F0FBBB9F1FD0F1ED24FF0000817E082
:10520000002600270CE0E819C17801FB09F10A0A21
:1052100034F816100FF050FC24F81600761C3F1DD1
:105220005645F0DB039804440298054408F1010850
:1052300004988045E4DBD9E737B3B9F1FD0F23D3F8
:105240004FF000091CE00026B0460FE005EB080017
:10525000BA5DC17811FB02F10A0A34F816100FF09A
:105260002BFC24F81600761C08F104085645EDDBEB
:1052700003980444029805440198074409F1010980
:1052800004988145DFDBB1E7002FAFD0B9F1FD0F06
:10529000ACD24FF0000B1EE00026B04611E005EB4B
:1052A0000800BA5DC17811FB02F101FB09F10A0C9B
:1052B00034F816100FF000FC24F81600761C08F1E4
:1052C00004085645EBDB0398044402980544019812
:1052D00007440BF1010B04988345DDDB86E70026CC
:1052E000B046B0E09BF82200012823D0022847D026
:1052F0000328A0D105EB080134F816008B78C20A08
:10530000DB0812FB03F25209D2024978C0F34513BD
:10531000890813FB01F1890902EB411115F80820F6
:1053200000F01F00D20810FB02F001EB501080B219
:10533000F7B35AE005EB080234F816009378C10A77
:1053400001EBD3011F2900D31F214FF6FF7303EA9E
:10535000C1235278C0F3451101EB92013F2900D3DC
:105360003F2103EB411189B215F8082000F01F001E
:1053700000EBD2001F2800D31F20084480B2D7E7DB
:1053800005EB080234F816009378C10AA1EBD301AB
:10539000002900DC00214FF6FF7303EAC123527895
:1053A000C0F34511A1EB9201002900DC002100E0CF
:1053B0000EE003EB411189B215F8082000F01F0040
:1053C000A0EBD200002800DC0020084480B2AFE748
:1053D000B9F1FD0F09D305EB0801CA7834F81610AE
:1053E0000FF0F4FA24F816002AE07FB9B9F1FD0FA6
:1053F0000CD205EB0801C97801FB09F10A0A34F85F
:1054000016100FF0E3FA24F8160019E0B9F1FD0FB9
:1054100007D3BA5D34F816100FF0D8FA24F8160046
:105420000EE005EB0802B95DD27811FB02F101FB39
:1054300009F10A0C34F816100FF0C8FA24F8160017
:10544000761C08F104085645FFF64CAF0398044457
:10545000029805440FB1019807440098401C009041
:10546000049900988842FFF63AAFBFE62DE9F34F62
:1054700087B08A460798D0F804900798806806900D
:10548000079890F82170079805680798C0680590FC
:10549000079884690798C069049007980669079877
:1054A00040690390079890F82200002802D000205D
:1054B0000290B9E0EEB9FD2F1BD34FF0000812E0C7
:1054C0000027002607E004EB8600E919C2780FF0F8
:1054D0002BFB5744761C4E45F5DB05980544049894
:1054E000044408F1010806988045E9DB09B0BDE8ED
:1054F000F08FFEB9FD2F1DD24FF0000B16E04FF0DC
:10550000000800260AE004EB8600C17879430A0A05
:1055100005EB08010FF008FBD044761C4E45F2DB8A
:1055200005980544049804440BF1010B0698834543
:10553000E5DBDBE71EB3FD2F21D34FF0000B1AE0B4
:105540004FF0000800270CE004EB8700F25DC17803
:1055500011FB02F10A0A05EB08010FF0E5FAD0444D
:105560007F1C4F45F0DB05980544049804440398DC
:1055700006440BF1010B06988345E1DBB6E7002EEC
:10558000B4D0FD2FB2D2002002901EE04FF0000BED
:10559000D8460FE004EB880016F80820C17811FB0C
:1055A00002F179430A0C05EB0B010FF0BDFAD3446D
:1055B00008F10108C845EDDB05980544049804444A
:1055C000039806440298401C02900699029888426B
:1055D000DCDB8BE74FF00008C34619E004EB8B00DF
:1055E000006801902EB39DF8070016F8081010FB14
:1055F00001F07843000C8DF807000798019990F8A6
:10560000222005EB080000F036F9D0440BF1010B25
:10561000CB45E3DB0EB10398064405980544049896
:1056200004440298401C0290069902988842D1DBFB
:105630005CE79DF807007843000A8DF80700DCE777
:1056400010B596B00446616C002920D068460BF076
:10565000EBFF214668460CF086F80F4968460CF0CF
:105660006CF86846616C0CF060F801220021684615
:105670000CF073F8094968460CF061F8084968466F
:105680000CF04CF868460CF08FF816B010BD16B050
:10569000BDE8104023F072BAFD8B0208FD16010828
:1056A000FF8B020801490BF077BF0000FD8B020859
:1056B0000FB482B0012A9DF80C1012D0022A18D023
:1056C000032A1ED102784A43110A8DF804109DF86E
:1056D0000D108DF80510014601981A4606B00FF01E
:1056E00091B902781144FF2900D3FF218DF80410ED
:1056F000EDE70278511A002900DC00218DF8041032
:10570000E5E706B070473FB581B0044615469DF801
:105710000A009DF809109DF80820012D1ED0022DC9
:1057200032D0032D18D1A5784543280A8DF8020000
:1057300060784843000A8DF8010020785043000A41
:105740008DF800009DF80B008DF8030021681A46C3
:1057500000980FF00DFA206005B030BDA578284400
:10576000FF2800D3FF208DF8020060780844FF284E
:1057700000D3FF208DF8010020781044FF2800D3CB
:10578000FF208DF80000DDE7A578281A002800DC4E
:1057900000208DF802006078401A002800DC00200C
:1057A0008DF801002078801A002800DC00208DF898
:1057B0000000C7E7FFB581B006460F461C460398B8
:1057C0000FF0EFF805463946304606F05CFAC0EBBC
:1057D0000020C2B20092012C15D0022C19D0032C4B
:1057E0000FD16A43C2F307209DF80F2069460FF0DE
:1057F00076FA9DF800007F2811D93946304627F007
:1058000065FC05B0F0BD5019FF2800DBFF20C0B2D9
:10581000EAE7501B002800DC0020C0B2E4E739466C
:10582000304601F035FBECE737B5054614460198E4
:105830000FF0B7F8012C0FD0022C14D0032C19D183
:1058400029784143C1F307209DF8072003B029467A
:10585000BDE830400FF052BA29780844FF2800DB39
:10586000FF20C0B2F0E72978081A002800DC0020E9
:10587000C0B2E9E73EBD17B581B0002100919DF8A7
:1058800008109DF809309DF80A40012A19D0022A13
:105890002DD0032A14D102784A43110A8DF8001042
:1058A00041785943090A8DF8011081786143090A4A
:1058B0008DF8021001469DF80B2068460FF034F970
:1058C0001FBD02781144FF2900D3FF218DF800107D
:1058D00041781944FF2900D3FF218DF80110817808
:1058E0002144FF2900D3FF218DF80210E2E702785E
:1058F000511A002900DC00218DF800104178C91AE6
:10590000002900DC00218DF801108178091B002995
:1059100000DC00218DF80210CCE770B504460D467E
:10592000204600F030F800B1FEE7284600F013F9F9
:105930006168001D08446060204600F030F8204691
:1059400070BD10B50C4600F006F91034A04201D32A
:10595000012010BD002010BD083870477CB50546F9
:105960000C46204600F0F7F86A4601A922F061FDD6
:10597000DDE900322146284609F0F2FF7CBD0079BE
:1059800000F00100704710B500F0E5F808B1002004
:1059900010BD012010BD007900F00200704710B565
:1059A0000446204600F07AF8046010BD7CB5064637
:1059B0000D460020019000900024002D0DD06A4675
:1059C00001A9284622F04CFD01980A2805DA6A460A
:1059D00001A9304627F014FB04465CB1204600F0D4
:1059E000BAF8A84200D2FEE7DDE90032214630468F
:1059F00024F050F920467CBD10B504462046FFF740
:105A0000CEFF00F093F82046BDE8104000F089B8C2
:105A100010B50446204600F041F800F08CF820460E
:105A2000BDE8104000F092B870B506460D46284615
:105A300000F034F8044644B12046FFF7A0FF70B1EF
:105A40002846FFF7A0FF08B1FEE7FEE721463046F3
:105A500000F056F821462846FFF75FFF0546284626
:105A600070BD70B506460D462846FFF794FF88B115
:105A7000284600F03CF8044674B12046FFF77FFF4B
:105A800058B12146304600F03BF829462046FFF742
:105A900044FF0546284670BDFEE7FEE770B50546A3
:105AA000284600F058F8041F284600F091F82146D7
:105AB00022F064FF04462846FFF765FF00B1FEE7C9
:105AC000204670BD10B503460C460020002C0DD0BA
:105AD0005AB12146184600F07DF82046FFF798FF9E
