:020000040800F2
:10000000303300209D010008DF1B0008EB0F0008C3
:10001000DD1B0008A9050008212F000800000000D2
:10002000000000000000000000000000EB1E0008BF
:10003000AB050008000000005D1C0008C11F00089F
:10004000B7010008B7010008B7010008B7010008B0
:10005000B7010008B7010008B7010008B7010008A0
:10006000B7010008B7010008B7010008B701000890
:10007000B7010008B7010008B7010008B701000880
:10008000B7010008B7010008B7010008B701000870
:10009000B7010008B7010008B7010008B701000860
:1000A000B7010008B7010008B7010008B701000850
:1000B000B7010008B7010008B7010008B701000840
:1000C000B7010008B7010008B7010008B701000830
:1000D000B70100085D2D0008B7010008B70100084E
:1000E000B7010008B7010008B7010008B701000810
:1000F000B7010008B7010008B7010008B701000800
:10010000B7010008B7010008B7010008B7010008EF
:10011000B7010008B7010008B7010008B7010008DF
:10012000B7010008B7010008B7010008B7010008CF
:10013000B7010008B7010008B7010008B7010008BF
:10014000B7010008B7010008B7010008B7010008AF
:10015000B7010008B7010008B7010008B70100089F
:10016000B7010008B7010008B7010008B70100088F
:10017000B7010008B7010008B7010008B70100087F
:10018000B7010008B7010008DFF80CD000F0FAF959
:1001900000480047513600083033002006488047A9
:1001A00006480047FEE7FEE7FEE7FEE7FEE7FEE75C
:1001B000FEE7FEE7FEE7FEE7C91F00088901000829
:1001C0002DE9F05F0546002092469B46884606468C
:1001D000814640241BE0284641464746224600F01F
:1001E00012F953465A46C01A914110D31146184687
:1001F000224600F0F9F82D1A67EB01084F46224617
:100200000120002100F0F0F817EB00094E41201EFC
:10021000A4F10104DFDC484631462A464346BDE8E6
:10022000F09F421C10F8011B0029FBD1801A704777
:100230002DE9FE4F81EA030404F0004421F000415F
:1002400000944FF0000B23F0004350EA01045ED00D
:1002500052EA03045BD0C3F30A54C1F30A552C4499
:10026000A4F2F3340194A0FB0254C1F3130141F44E
:100270008011C3F3130343F4801301FB024400FB1A
:10028000034E840A970A44EA815447EA8357A4FB41
:10029000076802958D0A05FB07854FEA932C04FB3E
:1002A0000C542705029D4FEA065847EA1637B5EB6E
:1002B00008056EEB070C870E920E47EA811742EA9B
:1002C0008312A7FB0201B6EB0B0164EB00042B0DBC
:1002D00043EA0C335E1844EB1C50DA465146E7FB08
:1002E0000201C5F313044FEA0B3343EA14534FEAF8
:1002F0000432019C43EA0603A4F10C040294009C1E
:10030000CDE900B400F09EF803B0BDE8F08F002006
:100310000146F9E70EB540F2334102910021CDE9E3
:1003200000110A460B4600F08DF803B000BDC1F382
:100330000A5210B5C1F3130140F2FF3341F48011AA
:100340009A4201DA002010BD40F233439A42A2F2F1
:10035000334203DC524200F056F810BD904010BD0D
:1003600000F0004230F000400AD0C10D01F560718C
:10037000C0F3160042EA0151C2084007114370471A
:10038000002001467047000030B5041E71F10004E2
:1003900004DB4FF00044404264EB0101141E73F192
:1003A000000405DB1C464FF00043524263EB04039C
:1003B0008B4208BF824230BD30B5041E71F100048B
:1003C00004DB4FF00044404264EB0101141E73F162
:1003D000000405DB1C464FF00043524263EB04036C
:1003E000994208BF904230BD202A04DB203A00FA2F
:1003F00002F1002070479140C2F1200320FA03F37C
:10040000194390407047202A04DB203A21FA02F079
:100410000021704721FA02F3D040C2F1200291403E
:1004200008431946704710B5141E73F1000408DA2A
:10043000401C41F1000192185B411A4301D120F0A8
:10044000010010BD2DE9F04D92469B4611B1B1FA65
:1004500081F202E0B0FA80F220329046FFF7C4FF4A
:1004600004460F4640EA0A0041EA0B0153465A4649
:10047000084313D0114653EA010019D0C8F14002D5
:100480005046FFF7C0FF05460E46504659464246C5
:10049000FFF7AAFF084305D0012004E020463946B3
:1004A000BDE8F08D0020054346EAE0762C43374353
:1004B0000A986305E40AA0EB08000022FD0A44EA5A
:1004C00047540A3002D500200146E9E7010510191A
:1004D0006941DDE9084500196941BDE8F04DA2E731
:1004E0002DE9F04D00231A461B1A8A4103DB002038
:1004F0000146BDE8F08DC1F30A52C1F3130141F486
:1005000080154FF0000BD10702D100186D41521E2B
:100510000027044640F2FF11384601EB620A3E46CE
:100520008046024600204FF48011FFF76CFFC2198D
:100530007141BB1846EB0100B4EB030C75EB000CEA
:1005400004D3E41A65EB000517460E46241908F19A
:1005500001006D4180463428E3DDF91946EB0600C1
:10056000091BA84103D24FF0FF32134601E00022DD
:1005700013461BEB070046EB0A51BDE8F04DFFF7B1
:1005800052BF0000064C074D06E0E06840F0010352
:1005900094E8070098471034AC42F6D3FFF7F8FD13
:1005A0006052000880520008FEE77047F0B585B041
:1005B00014461D460A4B1A88121A92B25B885B1ABF
:1005C0009BB2084F4FF0300C00263F88CDE9005C0D
:1005D000CDE90376029400F00FFC05B0F0BD0000F9
:1005E0006800002002000020F0B585B014461D46CA
:1005F0000A4B1A88121A92B25B885B1A9BB2084F98
:100600004FF0400C00263F88CDE9005CCDE9037631
:10061000029400F0F1FB05B0F0BD0000680000207E
:1006200002000020F0B585B014461D460A4B1A881A
:10063000121A92B25B885B1A9BB2084F4FF00C0CF7
:1006400000263F88CDE9005CCDE90376029400F0F6
:10065000D3FB05B0F0BD00006800002002000020C0
:10066000F0B585B014461D460A4B1A88121A92B28C
:100670005B885B1A9BB2084F4FF0100C00263F8836
:10068000CDE9005CCDE90376029400F0B5FB05B03E
:10069000F0BD00006800002002000020F0B585B029
:1006A00014461D460A4B1A88121A92B25B885B1ACE
:1006B0009BB2084F4FF0200C00263F88CDE9005C2C
:1006C000CDE90376029400F097FB05B0F0BD000081
:1006D00068000020020000208000A0F1C040002936
:1006E00004D0016841F00101016070470168024ACD
:1006F0001140016070470000FEFF0F0010B5D0E907
:1007000001121143D0E903231A43114342691143F3
:1007100082691143C2691143026A1143426A11435B
:10072000826A1143C26A1143026B1143026892004C
:10073000A2F1C04211608168082907D101688900CF
:10074000A1F1C0410A6842F040020A60416BD1E960
:10075000002342EA03128B688C891B0243EA04439C
:100760001A430B8A42EA03520B7D896942EA03620B
:100770000A430168491C8900A1F1C0410A60C16AAD
:10078000B1F5804F08D000686FF070418000A0F193
:10079000C040C0F8041110BD816BD1E9002342EACA
:1007A00003128B680C8A1B0243EA04531A430B7D25
:1007B000896942EA036200680A438000A0F1C040F0
:1007C000C0F8042110BD00002DE9F04105460C469B
:1007D0001646DFF858804FF400573946404600F07F
:1007E00002FC052000F09CFB032000F021F8C4F37C
:1007F000074000F01DF8C4F3072000F019F8E0B23C
:1008000000F016F8002405E0FF2000F011F828554C
:10081000641CA4B2B442F7D33946404600F0E1FB71
:10082000BDE8F041052000F07BBB0000000802405D
:100830002DE9F04705460024DFF85490154F4FF49A
:100840000068280604D54146484600F0CCFB03E08A
:100850004146484600F0C5FB0121384600F0C1FB87
:100860006806060E0421384600F0B4FB40EA06058F
:100870000121384600F0B7FB641CE4B2082CE0D339
:100880000121384600F0AFFB2846BDE8F0870000A4
:10089000001402400004024030B4044610460D46E5
:1008A0001A46217820281DD009DC0C2812D01028E7
:1008B00014D018281ED1104801FB020106E0302890
:1008C00014D0402816D10D4801FB0201284630BC47
:1008D000FFF77ABF514301F50021F7E7084801FB14
:1008E0000201F3E7074801FB0201EFE7064801FBBD
:1008F0000201EBE730BC70470012080000920800CC
:10090000000808000026080000480800F0B585B07F
:100910004FF6FF74204600F0E3FB20201F260190D5
:100920000025CDE9026446A0009004952023F02222
:100930002946182000F060FA1027CDE9017644A07E
:10094000CDE9034500903B46F0222821384600F0CF
:1009500053FACDE9017642A0CDE90345102300907A
:10096000F0223821184600F047FA43A31F224821FD
:100970001020FFF757FE45A0CDE900640290C82380
:100980000C226021102000F097FA0C200190CDE994
:10099000026445A0009004950C23F02278211020D9
:1009A00000F02AFACDE9017644A0CDE903451023F1
:1009B0000090F0228821184600F01EFA18200190BD
:1009C000CDE9026441A0009004951823F0229C21F7
:1009D000102000F011FA40A31F22B8211020FFF7C9
:1009E0005DFE40A31F22DC211020FFF7DFFD3EA3A8
:1009F0001F22DC217820FFF7F7FDF602CDE9017612
:100A00003AA0CDE9034500901023F0224FF48C71F9
:100A1000082000F0F1F9CDE901763BA0CDE90345CE
:100A200000901023F0224FF49671082000F0E4F9B2
:100A300005B04FF47A70BDE8F04002F0A7BD0000A9
:100A4000CAAED6D6D7D6BFE2B2E2CAD40000000002
:100A5000C9E8BCC6A3BAB4F3D4BDB5E7D7D3000088
:100A600046726F6D3A206D63756465762E74616FA2
:100A700062616F2E636F6D00446174653A2032309D
:100A800031392F30352F303800000000BED3D6D09A
:100A9000CFD4CABEBAAFCAFD3A20323031392F3076
:100AA000352F303800000000BABAD7D6313278314D
:100AB000322D47424BD7D6BFE2A3BA00BABAD7D637
:100AC0003136783136D7D6BFE2A3BA003234783225
:100AD00034D7D6BFE2A3BA003332783332D7D6BF89
:100AE000E2A3BA003438000036340000B4A5C3FED7
:100AF000C6C1D2D1BEADB9A4D7F7A3ACBFC9D2D4B9
:100B0000BBADBBAD00000000B4A5C3FEC6C1D6D8C6
:100B1000D0C2D0A3D7BCA3ACC7EBB0B44B455930BF
:100B2000B0B4BCFC0000000030B4054608462C7888
:100B30006978812C0AD3402908D3FF2906D0FF2CDD
:100B400004D07F290DD24039CDB20CE00021002223
:100B500003E000F8012B491C89B29942F9D330BC5B
:100B600070474139CDB2813CE1B2C1EB411404EB95
:100B7000811105EB410159430C2A0BD0102A0CD0EE
:100B8000182A0DD0202AEAD101F5601130BC1A468E
:100B9000FFF71ABE044A1144F8E7044A1144F5E786
:100BA00001F5ED11F2E700000014090000DD11006D
:100BB0007CB50121262001F053F80620009000208A
:100BC0008DF804008DF8060003208DF8050001243F
:100BD0008DF80740114D6946284600F0ADF90094A4
:100BE0008DF804406946284600F0A6F9610300919B
:100BF0008DF8044069460A4800F09EF9E102009130
:100C00008DF804406946074800F096F9012128460E
:100C100000F0E9F900F008F87CBD00000004024093
:100C2000000802400014024070B586B04FF6FF7015
:100C300000F056FA002000246D462C54401CC0B22F
:100C40001828FAD3112200216846FFF7BDFD4FF4A2
:100C5000784610216B4632460846FFF701FD00201A
:100C60002C54401CC0B21828FAD30822142168461C
:100C7000FFF7AAFD6B46324620211020FFF7F0FC5B
:100C800000202C54401CC0B21828FAD308221E2180
:100C90006846FFF799FD6B46324630211020FFF77A
:100CA000DFFC4FF4FA7002F071FC06B070BD2DE964
:100CB000F04FC1B082460D4616461C46A946600755
:100CC00001D0012000E0002000EBD40B60080BFBFA
:100CD00000FB0C2C09D0102C07D0182C05D0202C90
:100CE00003D0302C01D0402C33D15B46224601A9E1
:100CF0003046FFF7D1FD4FF0000828E001A810F8BA
:100D000008700026380605D5294650464A9A00F054
:100D100007FB06E04C9820B9294650464B9A00F054
:100D2000FFFA7806070E6D1CADB2A5EB0900A042D4
:100D300005D14D460AF1010A1FFA8AFA03E0761C32
:100D4000B6B2082EDED308F101081FFA88F8D8459C
:100D5000D4D341B0BDE8F08F2DE9F04FA1B0824669
:100D60000C4615461F46A146780701D0012000E039
:100D7000002000EBD70B0BFB07FB0C2F05D0102F2F
:100D800003D0182F01D0202F33D15B463A4601A95A
:100D90002846FFF7C9FE4FF0000828E001A810F828
:100DA00008600025300605D5214650462A9A00F0F5
:100DB000B7FA06E02C9820B9214650462B9A00F04D
:100DC000AFFA7006060E641CA4B2A4EB0900B84288
:100DD00005D14C460AF1010A1FFA8AFA03E06D1C9C
:100DE000EDB2082DDED308F1010808F0FF08D84560
:100DF000D4D321B0BDE8F08F2DE9FF4F83B0044676
:100E0000DDE910750E469346A046B2464FF0000944
:100E100020E0B9F1000F23D04FF0000908EB0B00E0
:100E2000401BA04202DA701986B24446069850442C
:100E3000401BB04211DBDDE912121498CDE900121B
:100E400002902B463A4631462046FFF785FFBF1CED
:100E5000601984B238780028DBD107B0BDE8F08F84
:100E6000802802D94FF00109F4E708EB0B01A1EB50
:100E70005501A14202DA71198EB2444606995144D5
:100E8000491BB142E9DB0D2810D0DDE9121214989C
:100E9000CDE9001202902B463A4631462046FFF734
:100EA00006FF7F1C04EB550084B2D3E7701986B2AD
:100EB00044467F1CF5E700002DE9F04786B08046E8
:100EC000DDE90E67109D894614469A462846FFF7CD
:100ED000A8F9610841438AB20123104952450CD94F
:100EE00001A8D0C0009504934B880A884946404623
:100EF000FFF782FF06B0BDE8F087AAEB020202EB23
:100F0000D270400801AA4044D0C2009504934B8897
:100F10000A8880B24946FFF76FFFEBE768000020C0
:100F2000002206E00021491CC9B26429FBD3521CEF
:100F3000D2B28242F6D370472DE9F0410022012758
:100F40004FF0030C07FA02F50B682B40AB422CD193
:100F5000066853000CFA03F4A64306600E79D0F835
:100F600000809E4046EA080606600E79012E01D0F8
:100F7000022E12D18668A64386604E79D0F808808A
:100F80009E4046EA080686604668AE43466045686D
:100F90008E799640B6B235434560C568A543C560B5
:100FA000CC799C40C3681C43C460521C102AC9D32E
:100FB000BDE8F08110B54B07DB0E9A40C90800EB85
:100FC0008100016A0F249C40A1430162016A114320
:100FD000016210BD0246002012690A4200D00120C1
:100FE00070474183704701837047FEE71CB50121BC
:100FF000032000F035FE4FF44070009000208DF883
:10100000040003208DF8050001248DF8074069468F
:101010000548FFF791FF009402208DF8070069460C
:101020000248FFF789FF1CBD000402400000024097
:101030002DE9F0470126274C002800D026702078A3
:10104000DFF89490254D4FF400774FF4807878B115
:1010500039462846FFF7BEFF88B141462846FFF7CC
:10106000B9FF60B101214846FFF7B4FF012806D05F
:1010700039462846FFF7AEFF01281DD028E00A2098
:1010800002F084FA0020207039462846FFF7A2FFBC
:1010900058B141462846FFF79DFF48B10121484617
:1010A000FFF798FF012805D012E00120BDE8F08786
:1010B0000220FBE70420F9E741462846FFF78AFFB4
:1010C000012805D101214846FFF784FF00B92670A9
:1010D0000020EBE704000020000002400004024072
:1010E000F0B5054600240C4F002108467B883A885D
:1010F00000F012FC3E88788846430021084600F044
:10110000EBFB00F01DFD4FF0D84102E0A1F880504C
:10111000641CB442FAD3F0BD68000020F0B400278C
:101120001E49F0222C242A252B264FF4A0730028D8
:1011300011D0012817D04FF0010C02281BD0032832
:1011400022D08F710A804B800C814D818E810020CE
:10115000F0BC00F071BB8F710A804B800C814D8117
:101160008E810020F4E78F710A804B800C814D81C5
:101170008E810320ECE781F806C00B804A800C8149
:101180004D818E810520E3E781F806C00B804A80FF
:101190000C814D818E810620DAE700006800002076
:1011A0002DE9FE4F00250026171AA3EB0108814602
:1011B0008A46681E002F03DD4FF00101019107E010
:1011C00003D14FF00001019102E00190C7F1000747
:1011D000B8F1000F03DD4FF00100009007E003D1EC
:1011E0004FF00000009002E00090C8F10008474571
:1011F00001DD3C4600E044464FF0000B601C0290CD
:1012000016E01FFA8AF11FFA89F00C9A00F088F8AC
:101210003D444644A54202DD2D1B01988144A6426F
:1012200002DD361B009882440BF1010B1FFA8BFB89
:1012300002988345E5DDBDE8FE8F000000B500F0B3
:101240004BFB00F07DFC024802490088088000BD8D
:10125000000000208000006C2DE9FF4F82B007469F
:101260008846002415460320A0EB420653E0A8EB75
:10127000050081B207EB040A01901FFA8AF0059A73
:1012800000F04EF8A8EB0400009081B207EB0509CE
:101290001FFA89F0059A00F043F808EB040B1FFAD7
:1012A0008BF11FFA89F0059A00F03AF808EB05096E
:1012B0001FFA89F11FFA8AF0059A00F031F81FFA37
:1012C00089F1A7EB04091FFA89F0059A00F028F8C4
:1012D000A7EB050A1FFA8BF11FFA8AF0059A00F0B6
:1012E0001FF80198059A81B21FFA89F000F018F8EA
:1012F0000098059A81B21FFA8AF000F011F8641C78
:10130000002E03DA06EB8406B61D04E0601B06EB34
:1013100080060A366D1EAC42A9DD06B0BDE8F08F2E
:1013200030B504460D460E4B9888A0F5134141395F
:1013300015D1588900F0FEFB200A00F0F5FBE0B261
:1013400000F0F2FB988900F0F5FB280A00F0ECFBB6
:10135000E8B200F0E9FB034819890180428030BD02
:10136000680000207E00006C2DE9F04F9FB0012145
:101370007A2000F075FC0121084600F07FFC4FF454
:1013800000401D904FF001088DF8788000248DF802
:101390007A4002258DF879508DF87B801DA9FE4892
:1013A000FFF7CAFD4CF233701D908DF878508DF820
:1013B0007A4003268DF879608DF87B80DFF8DC9326
:1013C0001DA94846FFF7B8FD4FF680701D908DF8B7
:1013D00078508DF87A408DF879608DF87B80DFF851
:1013E000C0A31DA95046FFF7A7FDEF021D978DF87A
:1013F00078508DF87A408DF879608DF87B80DFF831
:10140000A4B31DA95846FFF797FD1D978DF8785096
:101410008DF87A408DF879608DF87B80E24D1DA9BA
:101420002846FFF789FD0C2200214846FFF7C2FD40
:101430000C2201214846FFF7BDFD0C22042148463D
:10144000FFF7B8FD0C2205214846FFF7B3FD0C223B
:1014500008214846FFF7AEFD0C2209214846FFF758
:10146000A9FD0C220A214846FFF7A4FD0C220E21FB
:101470004846FFF79FFD0C220F214846FFF79AFDD3
:101480000C2207215046FFF795FD0C2208215046FB
:10149000FFF790FD0C2209215046FFF78BFD0C222F
:1014A0000A215046FFF786FD0C220B215046FFF71C
:1014B00081FD0C2211465046FFF77CFD0C220D21C8
:1014C0005046FFF777FD0C220E215046FFF772FDC4
:1014D0000C220F215046FFF76DFD0C221146584695
:1014E000FFF768FD0C2211462846FFF763FD0F2029
:1014F00007900894182009900A940B940C940D946A
:10150000082000900194029003940494059406949A
:1015100006200E900F9410941020119012941494A1
:1015200013941594169417971894800219901A948E
:1015300007A81B90CDF870D00EA8FFF7DFF80121A7
:101540000620FFF7C9F8322002F020F8002000F052
:1015500069F9964A90804FF6FF7449F24135FF28A9
:1015600004D3A04202D0B0F5134F14D1D32000F021
:10157000E1FA00F04DF9908000F04AF9908000F017
:1015800047F904EA0020908000F042F9918808436E
:101590009080A8427ED19088A8427CD1CF2000F0D4
:1015A000C9FA002000F0C0FAC12000F0BDFA3020D6
:1015B00000F0BAFAED2000F0BDFA642000F0B4FAB1
:1015C000032000F0B1FA122000F0AEFA812000F002
:1015D000ABFAE82000F0AEFA852000F0A5FA102062
:1015E00000F0A2FA7A2000F09FFACB2000F0A2FAD5
:1015F000392000F099FA2C2000F096FA002000F033
:1016000093FA342000F090FA022000F08DFAF720CF
:1016100000F090FA202000F087FAEA2000F08AFA21
:10162000002000F081FA002000F07EFAC02000F0D7
:1016300081FA1B2000F078FAC12000F07BFA01202B
:1016400000F072FAC52000F075FA302000F06CFA54
:10165000302000F069FAC72000F06CFAB72000F0E3
:1016600063FA362000F066FA482000F05DFA3A206E
:1016700000F060FA552000F057FAB12000F05AFA55
:10168000002000F051FA1A2000F04EFAB62000F0C7
:1016900051FA01E0AFE0A5E00A2000F045FAA220EF
:1016A00000F042FAF22000F045FA002000F03CFA87
:1016B000262000F03FFA012000F036FAE02000F08A
:1016C00039FA0F2000F030FA2A2000F02DFA2820F5
:1016D00000F02AFA082000F027FA0E2000F024FA81
:1016E000082000F021FA542000F01EFAA92000F092
:1016F0001BFA432000F018FA0A2000F015FA0F2018
:1017000000F012FA002000F00FFA002000F00CFAAE
:10171000002000F009FA002000F006FAE12000F0B5
:1017200009FA002000F000FA152000F0FDF917205A
:1017300000F0FAF9072000F0F7F9112000F0F4F9B1
:10174000062000F0F1F92B2000F0EEF9562000F011
:10175000EBF93C2000F0E8F9052000F0E5F9102055
:1017600000F0E2F90F2000F0DFF93F2000F0DCF993
:101770003F2000F0D9F90F2000F0D6F92B2000F01F
:10178000D9F9002000F0D0F9002000F0CDF90120B7
:1017900000F0CAF93F200BE000040240000C0240B8
:1017A00000100240001402400018024068000020AF
:1017B00000F0BAF92A2000F0BDF9002000F0B4F9D9
:1017C000002000F0B1F9002000F0AEF9EF2000F0A9
:1017D000ABF9112000F0AEF9782001F0D7FE2920F6
:1017E00000F0A8F90020FFF799FC0448C0F8BC827B
:1017F0002046FFF775FC1FB0BDE8F08F0080404227
:101800000346012000E05843491EC9B2FBD270478D
:1018100008B5034800880090BDF8000008BD00002E
:101820008000006C10B500F085F9052001F0C8FEBD
:10183000BDE81040FFF7ECBF10B50021254B9A889A
:10184000A2F51344413C43D1082812D2DFE800F04E
:10185000110406080A0C0E1080210AE0402108E05D
:10186000C02106E0202104E0602102E0A02100E088
:10187000E02141F00801362000F06CF9588900F0B1
:1018800059F9002000F050F9002000F04DF91888B7
:10189000401EC0F30F2000F047F91878401EC0B278
:1018A00000F042F9988900F045F9002000F03CF979
:1018B000002000F039F95888401EC0F30F2000F0D6
:1018C00033F99878BDE81040401EC0B200F02CB942
:1018D00010BD00006800002010B502460B460D4CFC
:1018E000A088A0F51341413913D1608900F022F995
:1018F000100A00F019F9D0B200F016F9A08900F032
:1019000019F9180A00F010F9BDE81040D8B200F03B
:101910000BB910BD6800002070B504460D46A01834
:10192000401E82B2E818401E83B2134EB088A0F564
:10193000134141391FD1708900F0FCF8200A00F0F2
:10194000F3F8E0B200F0F0F8100A00F0EDF8D0B2D1
:1019500000F0EAF8B08900F0EDF8280A00F0E4F8A9
:10196000E8B200F0E1F8180A00F0DEF8BDE87040D7
:10197000D8B200F0D9B870BD680000202DE9F84F4A
:1019800082460C461F46A346780701D0012000E09E
:10199000002000EBD70079084843C0B20090203AFD
:1019A00002F0FF09002648E00C2F13D0102F18D0AA
:1019B000182F45D1234909EBC90001EB8000855D53
:1019C0004FF00008280611D5214650460A9AFFF725
:1019D000A7FC13E01C4909EB490001EB8000855D81
:1019E000EEE71A4800EB0910855DE9E70B9828B986
:1019F0001748214642885046FFF792FC6806050EBC
:101A0000641CA4B213484088A04219D9A4EB0B006F
:101A1000B84209D15C460AF1010A1FFA8AFA0D4858
:101A2000008850450CD906E008F1010808F0FF08CD
:101A3000B8F1080FC6D3761CF6B200988642B3D32D
:101A4000BDE8F88F88440008243A0008983E000852
:101A500000000020680000202DE9FF4F82B0804682
:101A6000DDF8409093461D46002600240F98A246BC
:101A700047081FE0281B401EC1B20A20FFF7C0FE26
:101A8000BBFBF0F00A21B0FBF1F201FB120026B91A
:101A9000691E8C4201DA90B101263030C2B2CDE924
:101AA000009A07FB048080B20F9B0399FFF766FF43
:101AB000641CE4B2AC42DDD306B0BDE8F08FCDE9E2
:101AC000009A07FB048080B220220F9B0399FFF746
:101AD00055FFEDE72DE9FC4F0446DDE90B7B0D9E3C
:101AE0000D4604F0FF0810191FFA80F958191FFA63
:101AF00080FA12E04C4502D34446E81985B25545B8
:101B000010D20020CDE900B03B4629462046FFF721
:101B100035FF04EB570084B2761C3278A2F1200026
:101B20005E28E7D9BDE8FC8F0149088070470000B6
:101B30008000006C01490880704700007E00006C46
:101B400002480349008908807047000068000020AF
:101B50007E00006C014A1080518070477E00006C4E
:101B60007CB50121202000F07BF84FF4C064009484
:101B700001208DF8040000228DF8062003228DF844
:101B800005208DF80700054D69462846FFF7D4F972
:101B900021462846FFF727FA7CBD000000140240CA
:101BA0003EB5FEF7B3FE0A4D4FF478442C8009A0F1
:101BB00010210290CDE9001407480B46C822008886
:101BC0000021183880B2FFF785FF2C803EBD000051
:101BD000000000205253540068000020FEE77047C8
:101BE00030B50F23C27801250178002A1FD0154A8D
:101BF000126802F4E062C2F5E062C2F30722C2F1A9
:101C00000404D3404278A24084781C40144322014B
:101C100001F1E02181F80024007800F01F018D40DF
:101C20004009800000F1E020C0F8005130BD01F013
:101C30001F0085404809800000F1E020C0F8805175
:101C400030BD00000CED00E0024908430249086085
:101C5000704700000000FA050CED00E0704700003E
:101C6000054A002903D011680143116070471168CB
:101C7000814311607047000030380240054A002956
:101C800003D01168014311607047116881431160EE
:101C90007047000038380240054A002903D0116817
:101CA0000143116070471168814311607047000063
:101CB00044380240054A002903D0116801431160ED
:101CC000704711688143116070470000243802405A
:101CD00070B5244B196801F00C01234C00291ED06B
:101CE000661004291DD008291DD00460196801F070
:101CF000F00109091D4A545C0168E14041601C681B
:101D000004F4E054A40A145D21FA04F484601B680E
:101D100003F460435B0BD25CD140C16070BD0460D2
:101D2000E4E70660E2E70F4A121F1168C1F380552D
:101D3000116801F03F0135B1B6FBF1F11468C4F34D
:101D40008814614305E0B4FBF1F11468C4F388140E
:101D500061431268C2F30142521C5200B1FBF2F11E
:101D60000160C3E7083802400024F400540000205A
:101D70002DE9F04387B001210846FFF771FF4FF4CA
:101D8000805801214046FFF787FF38270597022535
:101D90008DF8185000248DF81A4003208DF8190092
:101DA00001268DF81B60DFF8849005A94846FFF7EF
:101DB000C3F8052203214846FFF7FCF80522042159
:101DC0004846FFF7F7F8052211464846FFF7F2F8B4
:101DD00001214046FFF76EFF00214046FFF76AFFF2
:101DE000ADF800404FF48270ADF80200ADF8044049
:101DF000ADF80650ADF808602802ADF80A00ADF85D
:101E00000C70ADF80E400720ADF81000084C694684
:101E1000204600F04EF80121204600F033F8FF2064
:101E200000F008F807B0BDE8F083000000040240AD
:101E30000030014070B505460A4C0221204600F0F2
:101E40002DF80028F9D02946204600F030F801216D
:101E5000204600F023F80028F9D0204600F025F8AD
:101E6000C0B270BD0030014001460548028822F032
:101E70003802028002880A430280012100F002B881
:101E800000300140002904D0018841F04001018068
:101E90007047018821F04001018070470246002010
:101EA00012890A4200D001207047808970478181E1
:101EB000704730B5028802F441530A884C88CD88B7
:101EC00022438C882C4322430C8922434C89224391
:101ED0008C892243CC8922431A430280828B22F4CC
:101EE00000628283098A018230BD70470CB50022EE
:101EF000019200922749086840F4803008604FF44E
:101F0000A043086800F4003000900198401C019044
:101F1000009810B901989842F3D10868800302D55F
:101F20000120009000E000920098012831D119486A
:101F30004030026842F0805202601748026842F462
:101F4000404202601348083002680260026842F4AE
:101F500000420260026842F4A0520260021F0F4B6E
:101F600013600A6842F080720A600A689201FCD528
:101F70000B4A40F205711160016821F00301016014
:101F8000016841F0020101600168C1F38101022989
:101F9000FAD10CBD003802400070004008544007E0
:101FA000003C02404FF0E021042804D0086920F0F2
:101FB000040008617047086940F004000861704738
:101FC000012001F03BBB000010B51248016841F44C
:101FD000700101601048016841F0010101600E4A82
:101FE00000210832116002680C4B1A400260031D88
:101FF0000B4A1A60026822F48022026006480C3004
:102000000160FFF773FF03494FF0006080390860FB
:1020100010BD000088ED00E000380240FFFFF6FE32
:10202000103000242DE9FF4F83B09046DDE911AB5D
:10203000DDF840901F4655484FF478440480102541
:1020400053A0544ECDE90054029073883288A021E9
:102050002820FFF73FFD50A0CDE90054029073887F
:102060003288A0217820FFF735FD4CA0CDE900543F
:10207000029073883288B4212820FFF72BFD48A0F6
:10208000CDE90054029073883288B4217820FFF79C
:1020900021FD44A0CDE90054029073883288C82104
:1020A0002820FFF717FD40A0CDE900540290738867
:1020B0003288C8217820FFF70DFD3CA0CDE90054FF
:1020C000029073883288DC212820FFF703FD38A0B6
:1020D000CDE90054029073883288DC217820FFF724
:1020E000F9FC34A0CDE90054029073883288F021C5
:1020F0002820FFF7EFFCCDE900540423A021402065
:10210000039AFFF7A9FCCDE900540423A0219020F5
:10211000049AFFF7A1FCCDE9005404234246B42100
:102120004020FFF799FCCDE9005404233A46B4213E
:102130009020FFF791FCCDE9005404234A46C821C2
:102140004020FFF789FCCDE9005404235246C82102
:102150009020FFF781FCCDE9005404235A46DC218E
:102160004020FFF779FCCDE900540423DC219020C6
:10217000139AFFF771FCCDE900540323F02160208E
:10218000149AFFF769FC07B0BDE8F08F000000204B
:1021900078313A006800002079313A0078323A000C
:1021A00079323A0078333A0079333A0078343A0099
:1021B00079343A006661632069733A002DE9F04F83
:1021C0002DED0C8B89B0002400251F20FE4F388098
:1021D000FE484FF6FF79A0F800904846FEF780FFD2
:1021E00000263E80FA484FF0100828210068CDE90B
:1021F000008602906423A0220846FFF76BFCF5A03E
:102200004FF47847CDE90008CDE902791023F02298
:10221000C82104960820FEF7EFFDF4A0CDE90008E0
:10222000CDE902791023F022DC2104960820FEF784
:10223000E3FD14213A46084600F03CFBDFF8C49366
:1022400089F820609FEDF00A89ED090A9FEDEFAB58
:102250009FEDF0BB9FEDF19BF24EA9F1080AD9F872
:1022600004100120884799F820000121B1EB901F4C
:1022700048D1002520F0400089F8200005A8B9F8D1
:102280000C1020F8241000EB8400B9F816104180DF
:10229000641CE4B2012C06D0022C12D0032C20D0F6
:1022A000042C2FD13DE014214FF6FF72084600F0B8
:1022B00001FB30883A46143880B2142100F0FAFA53
:1022C00020E030884FF6FF72143880B2142100F0FD
:1022D000F1FA70883A46143881B2142000F0EAFA14
:1022E00010E070884FF6FF72143881B2142000F0AD
:1022F000E1FA70883A46143881B23088143880B2D6
:1023000000F0D8FA0A2001F041F96D1CADB2B5F524
:102310007A7FA4D900F010FB09B0BDEC0C8BBDE8AE
:10232000F08FBDF81400BDF81810401A00D54042D7
:10233000BDF81610BDF81A20891A00D5494240434D
:1023400049430844FDF7E6FF41EC100B00F056FF4F
:1023500051EC100BFDF7EBFF84B2BDF81C00BDF88B
:102360002010401A00D54042BDF81E10BDF82220B2
:10237000891A00D54942404349430844FDF7CAFF42
:1023800041EC100B00F03AFF51EC100BFDF7CFFFC2
:102390001FFA80FB00EE104AF8EE400A00EE10BA79
:1023A000B8EE401A80EE810A10EE100AFDF7D8FF51
:1023B00041EC180B53EC1A2B51EC180BFDF7E4FF12
:1023C0007ED353EC1B2B51EC180BFDF7F5FF77D3A5
:1023D000002C75D0BBF1000F72D0BDF81400BDF811
:1023E0001C10401A00D54042BDF81610BDF81E2042
:1023F000891A00D54942404349430844FDF78AFF02
:1024000041EC100B00F0FAFE51EC100BFDF78FFFC2
:1024100084B2BDF81800BDF82010401A00D5404223
:10242000BDF81A20BDF82210511A00D54942404388
:1024300049430844FDF76EFF41EC100B00F0DEFE4F
:1024400051EC100BFDF773FF80B200EE104AF8EE6E
:10245000400A00EE100AB8EE401A80EE810A10EE33
:10246000100AFDF77DFF41EC180BB0EE4ACAF0EE02
:102470006ACA53EC1C2B51EC180BFDF785FF0AD3ED
:10248000B0EE4BDAF0EE6BDA53EC1D2B51EC180B7F
:10249000FDF792FF63D2002470884FF6FF72143864
:1024A00081B23088143880B200F004FA14213A4620
:1024B000084600F0FFF953EC192B51EC180B00E023
:1024C0001CE0FDF7B5FEFDF732FFBDF82020BDF89A
:1024D0002210BDF81E30CDE9013280B2CDE90310E3
:1024E000BDF81C000090BDF81A30BDF81820BDF8EA
:1024F0001610BDF81400FFF795FDB0E600247088B3
:102500004FF6FF72143881B23088143880B200F070
:10251000D1F914213A46084600F0CCF953EC192BB6
:1025200051EC180BFDF784FEFDF701FFBDF82020EC
:10253000BDF82210BDF81E30CDE9013280B2CDE9E0
:102540000310BDF81C000090BDF81A30BDF818202B
:10255000BDF81610BDF81400FFF764FD7FE6BDF866
:102560001800BDF81C10401A00D54042BDF81A10E2
:10257000BDF81E20891A00D549424043494308440A
:10258000FDF7C8FE41EC100B00F038FE51EC100BCB
:10259000FDF7CDFE84B2BDF81400BDF82010401A3E
:1025A00000D54042BDF81610BDF82220891A00D58A
:1025B0004942404349430844FDF7ACFE41EC100B4F
:1025C00000F01CFE30E000000000002002000020AF
:1025D000203A0008D0A3D7BCA3BAD2C0B4CEB5E38A
:1025E000CBC4BDC7B5C4B5E3000000002020202047
:1025F0002020BDF8D0D0B4A5C3FEC6C1D0A3D7BC9F
:102600000000000010000020000000006666666602
:102610006666EE3FCDCCCCCCCCCCF03F00000000C9
:10262000000059406800002051EC100BFDF77FFEC0
:1026300080B200EE104AF8EE400A00EE100AB8EE42
:10264000401A80EE810A10EE100AFDF789FE41EC77
:10265000180B53EC1C2B51EC180BFDF795FE06D311
:1026600053EC1D2B51EC180BFDF7A6FE30D20024C5
:1026700070884FF6FF72143881B23088143880B2F7
:1026800000F018F914213A46084600F013F953EC0B
:10269000192B51EC180BFDF7CBFDFDF748FEBDF8EB
:1026A0002020BDF82210BDF81E30CDE9013280B2E5
:1026B000CDE90310BDF81C000090BDF81A30BDF83C
:1026C0001820BDF81610BDF81400FFF7ABFCC6E5E6
:1026D000BDF81810BDF814000A1A00EE102A32884E
:1026E000B8EEC01AA2F1280300EE103AB8EEC00A04
:1026F000C0EE010AC9ED090A084400EE100AF6EE20
:10270000001AB8EE401A00EE102AB8EE400A00EEA9
:10271000C10A20EE210A89ED0B0ABDF81E30BDF872
:102720001600191A00EE101A7188B8EEC01AA1F13D
:10273000280400EE104AB8EEC02A82EE010A89EDA4
:102740000A0A184401EE100AB8EE412A01EE101AE6
:10275000B8EE411A00EE421A21EE211A89ED0C1A48
:10276000FDEEE00A10EE900A002800DA404202284E
:1027700008DCBDEEC00A10EE100A002800DA404264
:1027800002282EDD0024143A143990B289B24FF693
:10279000FF7200F08FF814213A46084600F08AF8DC
:1027A00024A0CDE900870290738832881A2128205E
:1027B000FFF790F999F8340050B1002089F83400FF
:1027C00040B190208AF80000D0208AF8010046E548
:1027D0000120F3E7D0208AF8000090208AF8010059
:1027E0003DE519491F2008804FF6FF742046FEF78B
:1027F00077FC16A0CDE900870290738832886E219D
:102800002020FFF767F9CDE901870020CDE90340DB
:1028100014A000901023F02282212020FEF7ECFA71
:102820004FF47A7000F0B2FE00F0E4F92046FEF7B3
:1028300057FC71E55450204E6565642072656164F3
:102840006A7573742100000000000020546F7563E6
:10285000682053637265656E2041646A75737420E5
:102860004F4B2100B4A5C3FEC6C1D0A3D7BCCDEA4F
:10287000B3C9A3AC4F4BA3A1A3A1000070B50646FA
:102880000C460B48028021463046FEF7D7FC751CEB
:10289000A8B22146FEF7D2FC641CA1B23046FEF776
:1028A000CDFCA1B2A8B2BDE87040FEF7C7BC0000E5
:1028B000000000202DE9F84304460D4616461D4849
:1028C000068004F10D0082B2193880B22B462946E9
:1028D0000096FEF765FC05F10D0083B2193881B250
:1028E000224620460096FEF75BFC681C804681B2BB
:1028F000601C074680B2FEF7A1FC1FFA88F1601E3B
:10290000804680B2FEF79AFC681E814681B2B8B25A
:10291000FEF794FC1FFA89F11FFA88F0FEF78EFC8F
:1029200001B0334629462046BDE8F0430622FEF7B3
:1029300093BC00000000002000B587B018220021E1
:1029400001A800F045FB9DF815009DF816100A2916
:1029500000D110B1002007B000BD174901984860B0
:10296000081D90ED000ADFED150A001DB8EEC01A33
:1029700081EE200A80ED090A9DED020AB8EEC00A38
:1029800080EE201A80ED0A1A9DED030AB8EEC00A07
:1029900080ED0B0A9DED040A81ED010AB8EEC00A34
:1029A00080ED0C0A002280F83420D020087090209E
:1029B00048700120CFE700000800002020BCBE4C7A
:1029C0007CB501212620FFF74BF90620009000205E
:1029D0008DF804008DF8060003208DF80500012411
:1029E0008DF807401A4D69462846FEF7A5FA00946F
:1029F0008DF8044069462846FEF79EFA6003009071
:102A00008DF8044069461348FEF796FAE0020090FC
:102A10008DF8044069461048FEF78EFA0F49A1F17F
:102A20000A000C46054600F08DF82146284600F0C5
:102A300089F8FFF781FF08B100207CBD4FF6FF70D9
:102A4000FEF74EFBFFF7BAFBFFF776FF01207CBDD8
:102A5000000402400008024000140240260000204A
:102A60002DE9F047002500241A4EA046C6F88082C2
:102A70001949C1F8AC82DFF86490C9F8B48200F05B
:102A800049F9062000F09CFDC6F88082012000F084
:102A900097FD0127C6F88072012000F091FDC6F86D
:102AA00080824FF6FF7A0AEA4404C6F88082012049
:102AB00000F086FDC6F88072D6F8080208B1641CE2
:102AC000A4B26D1CEDB2102DEDD32009C9F8B4727B
:102AD000BDE8F08700804042008042420000414251
:102AE000FEB5064600246D463046FFF7B9FF25F8CF
:102AF0001400641CA4B2052CF6D30021481C044623
:102B000080B20BE035F8113035F81020934203D92C
:102B100025F8112025F81030401C80B20528F1D38B
:102B2000A1B20429EAD30021012035F81020114474
:102B300089B2401C80B20428F7D30320B1FBF0F027
:102B4000FEBD00002DE9F04104460F46064D2878F1
:102B5000FFF7C6FF06466878FFF7C2FF2680388079
:102B60000120BDE8F0810000080000202DE9FF41B0
:102B700006460F4602A903A8FFF7E4FF88B369469B
:102B800001A8FFF7DFFF68B3BDF80420BDF80C30E3
:102B90009A4203D802F13200834205D3934226D8E9
:102BA00003F13200824222D2BDF80050BDF8084045
:102BB000A54203D805F13200844204D3AC4216D8B2
:102BC0003234A54213D2981840083080BDF808006E
:102BD000BDF80010084440083880012004B0BDE86A
:102BE000F08100E001E00020F8E70020F6E7002097
:102BF000F4E7000000B587B01848DFED190A011F9F
:102C000090ED090A20EE200ABDEEC00A81ED000A0F
:102C10008DED010A90ED0A0A20EE200ABDEEC00AF1
:102C20008DED020A90ED0B0ABDEEC00A8DED030A90
:102C300090ED0C0ABDEEC00A81ED000A8DED040A8C
:102C4000002180F834108DF815100A208DF8160038
:102C5000182201A800F018FA07B000BD10000020EB
:102C600020BCBE4C10B529490968294C002908D060
:102C700094F8200001063DD520F0800084F8200063
:102C80003FE00200224800F1160100F10C0002D0E2
:102C9000FFF76CFF22E0FFF769FFF8B1A08994ED20
:102CA0000B0A00EE900A94ED091AF8EE600A01EEA4
:102CB000200ABCEEC00A10EE100AA081E08A94ED52
:102CC0000C0A00EE900A94ED0A1AF8EE600A01EE82
:102CD000200ABCEEC00A10EE100AE08294F8200030
:102CE00000060ED4C02084F82000A089A082E08ACB
:102CF000E08306E00020A082E0834FF6FF70A08111
:102D0000E08294F8200000F0800010BD0482404270
:102D1000100000202DE9F04705460024DFF834803C
:102D20000D4E00274FF00109280602D5C8F8AC92D5
:102D300001E0C8F8AC726806050EC6F88072012082
:102D400000F03EFCC6F88092641CE4B2082CEBD381
:102D5000BDE8F087008042420080404270B5164CCA
:102D600040F22551204600F03DF800280ED02046C4
:102D700000F0D2F8C1B2114A1088030406D444040A
:102D80004FF0000307D50A2901D0138070BD40F42D
:102D90000040108070BD0D290AD0094DC0F30D040C
:102DA0002955401C80B21080C728F3D9138070BD0C
:102DB00040F48040108070BD001001404E000020A3
:102DC000761000208A05C94301807047002904D08D
:102DD000818941F4005181817047818921F400513A
:102DE0008181704770B5002440F66A12C1F3421326
:102DF00001F01F05012606FA05F2012B0CD0022B6B
:102E00000DD0838A1340090A8E40008830400BB1F0
:102E100000B10124204670BD83891340F3E7038A83
:102E20001340F0E710B540F66A13C1F3421301F006
:102E30001F040121A140012B07D0022B07D0143021
:102E40003AB102680A43026010BD0C30F8E7103056
:102E5000F6E702688A43026010BD00007FB50446B1
:102E60000D46208A20F44051E88808432082A0893A
:102E700041F20C618843A9882A8911436A89024377
:102E80001143A181A08A20F44071A8890843A0823F
:102E90006846FEF71DFF1E48844202D01D4884424A
:102EA00001D1039800E00298A189090408D500EB3C
:102EB000C00101EB001029684900B0FBF1F007E008
:102EC00000EBC00101EB001029688900B0FBF1F0B4
:102ED0006422B0FBF2F109010B096FF018056B4396
:102EE00000EB8300A3891D044FF0320307D503EBE9
:102EF000C000B0FBF2F000F00700084306E003EB6F
:102F00000010B0FBF2F000F00F00084320817FBDFD
:102F100000100140001401408088C0F30800704791
:102F2000FEE7000070B5044621460FA000F056F9F8
:102F3000240300F0FBF800F0A1F80D4D00202860FC
:102F40002020FEF777FFC4F30740FEF773FFC4F3BA
:102F50000720FEF76FFFE0B2FEF76CFF012028604C
:102F6000BDE8704000F08AB866653A25780D0A0021
:102F7000B88240421CB501210220FEF771FE0121FA
:102F80004020FEF76DFE4FF48040009001248DF844
:102F9000044000208DF8060003208DF805008DF810
:102FA000074069460748FDF7C7FF07480460FEF77A
:102FB000DFFE0020FEF758FF00F032F803490880DA
:102FC0001CBD000000040240B882404248000020BE
:102FD0002DE9F04105460C461646104F0020C7F873
:102FE000B8020320FEF726FFC4F30740FEF722FFD6
:102FF000C4F30720FEF71EFFE0B2FEF71BFF00241C
:1030000005E0FF20FEF716FF2855641CA4B2B44269
:10301000F7D30120C7F8B802BDE8F0810080404234
:1030200070B50D4D00242C609020FEF703FF0020AA
:10303000FEF700FF0020FEF7FDFE0020FEF7FAFE7F
:10304000FF20FEF7F7FE44EA0024FF20FEF7F2FE21
:1030500020430121296070BDB882404210B5064C62
:10306000002020600520FEF7E5FEFF20FEF7E2FECF
:103070000121216010BD0000B882404210B5FFF769
:10308000EDFFC007FBD110BD2DE9F05F80468A46F9
:103090001546DFF894904FEA1A37CAF30B06C6F5C7
:1030A0008054A54233D82C4631E0311819F801106C
:1030B000FF2903D1401C80B2A042F6D3A04214D213
:1030C0003846FFF72FFF002006E0821918F800109D
:1030D00009F80210401C80B2A042F6D359464FF4C2
:1030E0008052484600F02EF804E022465146404601
:1030F00000F028F8A54214D07F1C0026A044A2446A
:10310000281B85B24FF48054A54200D82C464FEAC4
:10311000073B4FF4805259464846FFF759FF0020BD
:10312000CAE7BDE8F09F00007600002010B5044C0F
:10313000002020600620FEF77DFE0120206010BDEB
:10314000B88240422DE9F04107460E461546F0B2DE
:10315000C0F58074A54200D82C464FF4807807E073
:1031600027442644281B85B24446A54200D82C4655
:1031700022463146384600F005F8A542F0D1BDE8B8
:10318000F08100002DE9F04105460C461646FFF798
:10319000CDFF114F0020C7F8B8020220FEF74AFE0B
:1031A000C4F30740FEF746FEC4F30720FEF742FED5
:1031B000E0B2FEF73FFE002404E0285DFEF73AFE91
:1031C000641CA4B2B442F8D30120C7F8B802BDE829
:1031D000F041FFF753BF0000008040420FB4054BA1
:1031E00010B503A9044A029800F05AF810BC5DF823
:1031F00014FB0000293600085000002000B52DED1A
:10320000048BB0EE409AF0EE609A83B051EC190B4B
:10321000FDF766F941EC180B18EE100A18EE901A3B
:103220008DED008B002818BF0120084320F00040DE
:10323000C0F17F6000F1E040C00F14D019EE101A09
:1032400019EE900A8DED009B002918BF012108435B
:1032500020F00040C0F17F6000F1E040C00F04BFEB
:10326000012000F017F8B0EE480A03B0F0EE680A4B
:10327000BDEC048B00BD02E008C8121F08C1002A83
:10328000FAD170477047002001E001C1121F002AE7
:10329000FBD17047014908607047000064000020BE
:1032A0002DE9FF4F8DB09B460F460446002606E0F1
:1032B00025280BD05A460F999047641C761C20781D
:1032C0000028F5D111B03046BDE8F08F0025A846A2
:1032D0000122984900E0054314F8013F203B02FA1F
:1032E00003F00842F7D120782E2817D114F8010FE7
:1032F00045F004052A280ED06FF02F022078A0F1A7
:10330000300109290AD808EB880102EB410100EBE2
:103310000108641CF2E757F8048B641C20786C28C1
:103320000DD004DC4C2812D06A2811D104E0742896
:103330000DD07A280CD10AE045F4001507E0617839
:1033400045F48015814202D1641C05F58015641C8A
:103350002278692A45D008DC002AB3D0582A69D0DF
:10336000632A10D0642A08D13BE0702A67D0732A00
:1033700013D0752A5CD0782A5CD010465A460F9933
:103380009047761CD3E017F8040B8DF8000000205E
:103390008DF80100E946012003E057F8049B4FF047
:1033A000FF3069074FF0000501D40AE06D1C454568
:1033B0000DDA8542FADB19F805100029F6D106E08E
:1033C0006D1C8542FCDB19F805100029F8D12E444C
:1033D00004E019F8010B5A460F9990476D1EF8D278
:1033E000A5E00A200021CDE90801C5F3025002281A
:1033F0000DD001CFC117031E71F100030DDA4FF09C
:10340000000CD0EB0C006CEB01012D2308E0FF1D3C
:1034100027F00707F7E80201EDE72B0504D52B237A
:103420008DF8283001233BE0EB0739D02023F7E764
:103430000A2000E010200021CDE9080107E010205B
:10344000002145F00405CDE908014FF00808C5F357
:10345000025002280FD001CF00214FF0000A2B07A5
:103460001FD5702A0DD0DDE908C38CF0100C5CEA82
:10347000030C0CD015E0FF1D27F00707F7E8020149
:10348000EBE740228DF828204FF0010A0BE050EACC
:10349000010306D030238DF828308DF8292002232F
:1034A0009A46582A04D024A20DF120090B9209E073
:1034B00026A2F9E7DDE90823FCF782FE0B9B9B5C63
:1034C00009F8013D50EA0102F4D1ADEB09002030CA
:1034D0000890680701D44FF001080899884502DD7B
:1034E000A8EB010000E000208046002506E00AA8C5
:1034F0005A46405D0F9990476D1C761C5545F6DB8A
:1035000004E030205A460F999047761CB8F100012C
:10351000A8F10108F5DC05E019F8010B5A460F99EE
:103520009047761C0899481E08900029F4DC641C1A
:10353000C5E6000009280100303132333435363712
:1035400038396162636465660000000030313233EF
:10355000343536373839414243444546000000008F
:1035600010B504466FF00400FEF71CFD0649E008A4
:10357000087000EB4002C2EBC0104FF6FF7202EA87
:10358000C000488010BD00004A00002070B54FF414
:103590000775B0FBF5F1CCB2B0FBF5F105FB1106F8
:1035A00004E0284600F026F8641EE4B2002CF8D1AE
:1035B000002E04D03046BDE8704000F01BB870BD4E
:1035C0000B49097848434FF0E021486100238B61A3
:1035D000086940F0010008610869C20701D0C00312
:1035E000FAD5086920F0010008618B61704700007E
:1035F0004A0000200B49498848434FF0E0214861C8
:1036000000238B61086940F0010008610869C20766
:1036100001D0C003FAD5086920F0010008618B6170
:10362000704700004A00002003490A885206FCD572
:10363000C2B28A8070470000001001400349002296
:103640000A710A681044086070470000F8110020F1
:1036500086B04FF4A060FEF7F7FAA820FFF780FFCE
:103660004FF4E13000F082F9FEF77AFAFDF77CFEC4
:10367000FDF7BCFCFFF77EFC5B484FF47845058006
:1036800010245A4E4FF4FA774EF6147820E058A0E2
:1036900002901023C8229621CDE900451E20FEF796
:1036A00019FA3846FFF772FF57A002901023C8227C
:1036B0009621CDE900451E20FEF70CFA3846FFF7AB
:1036C00065FFD6F8A402002878D00021C6F8A4121D
:1036D000FFF7A6FC4045DAD150A002901023C82283
:1036E0009621CDE900451E20FEF7F4F9FDF760FABA
:1036F0004E48006880474FF6FF763046FDF7F0FCF5
:103700004BA010230290C8221421CDE90045184691
:10371000FEF7E0F94AA010230290C8222821CDE943
:1037200000451846FEF7D6F948A010230290C8229B
:103730003C21CDE900451846FEF7CCF948A01023FE
:103740000290C8225021CDE900451846FEF7C2F983
:1037500020204FF01F080190CDE9028643A00027EA
:10376000009004972023F02278211020FDF744FBDD
:1037700018200190CDE902863FA0009004971823FD
:10378000F022A0211020FDF737FB40A08DE81101A9
:103790001023F022BE21CDE903671846FDF72CFB6C
:1037A0000C200190CDE902863DA0009004970C23E7
:1037B000F022D2211020FDF71FFB00E011E03FA016
:1037C00010230290F022E621CDE900451846FEF7CD
:1037D00081F940F2DC50FFF7D9FEFEF7E1F900F085
:1037E00079F8012172E700000000002000804242C9
:1037F00057323551313620436865636B2046616925
:103800006C65642100000000506C656173652043A5
:103810006865636B2120202020202000573235511D
:1038200031362052656164792100000010000020CB
:103830006D63756465762053544D33324634000011
:10384000544F554348205445535400006D637564EC
:1038500065762E74616F62616F2E636F6D0000007C
:10386000323031392F312F3135000000D7D6BFE249
:10387000B2E2CAD42D333200322E382F332E32B476
:10388000E7D2BABEA7C6C12D32340000C9E8BCC613
:10389000A3BAB4F3D4BDB5E7D7D32D3136000000B9
:1038A00046726F6D3A206D63756465762E74616F34
:1038B00062616F2E636F6D2D31320000507265733F
:1038C00073204B45593020746F2041646A757374BE
:1038D000000000000024224F224EDFF88C804FF0C1
:1038E00014090020FDF7A4FB0546716800208847F5
:1038F00096F82000000614D5B0893A88904213D279
:10390000F18A7B8899420FD2183A904204DD10293F
:1039100002D2FEF745F907E04FF47842FEF7AEFF1A
:1039200002E00A20FFF732FE012D07D14FF6FF70AB
:10393000FDF7D6FBFEF742FCFEF732F9641CE4B259
:10394000B4FBF9F009FB10400028CAD1D8F8A40252
:1039500018B10020C8F8A402C3E70120FAE700006C
:10396000680000201000002000804242F0B587B0BF
:10397000054601210846FEF773F901211020FEF7E4
:103980008BF9254F072209213846FDF713FB072243
:103990000A213846FDF70EFB4FF4C0600590022067
:1039A0008DF818008DF8190000248DF81A400126B2
:1039B0008DF81B6005A93846FDF7BEFA0195ADF8F4
:1039C0000840ADF80A40ADF80C40ADF810400C20AE
:1039D000ADF80E00114C01A92046FFF73FFA012176
:1039E0002046FFF7F3F940212046FFF7EBF90122CB
:1039F00040F225512046FFF715FA25208DF80000EA
:103A000003208DF801008DF802008DF803606846F0
:103A1000FEF7E6F807B0F0BD0000024000100140DC
:103A2000E451000800000000000000000000000059
:103A3000000000003F4000000000000000003000D7
:103A4000400030004000000009000BC03D000BC0EA
:103A50003D00090018C024407FE022403180000072
:103A6000180024C01B000D803240018003801C40E0
:103A700027401C800740004010006000000000004C
:103A8000000000000000000000001F8020404020D7
:103A90000000402020401F800000000009000600B8
:103AA0001F80060009000000040004003F8004009D
:103AB0000400000000100060000000000000000092
:103AC00004000400040004000400000000000040A2
:103AD0000000000000000000002001C006003800C7
:103AE000400000001F802040204020401F80000038
:103AF000000010403FC000400000000018C02140FE
:103B000022402440184000001080204024402440DF
:103B10001B80000002000D0011003FC001400000AA
:103B20003C80244024402440238000001F80244007
:103B300024403440038000003000200027C03800BB
:103B4000200000001B802440244024401B800000F3
:103B50001C0022C0224022401F8000000000000004
:103B600008400000000000000000000004600000A9
:103B700000000000000004000A0011002080404006
:103B80000900090009000900090000000000404088
:103B9000208011000A0004001800200023402400A7
:103BA000180000001F802040274029401F400000CF
:103BB000004007C039000F0001C0004020403FC056
:103BC000244024401B8000001F80204020402040D3
:103BD0003080000020403FC0204020401F80000077
:103BE00020403FC024402E4030C0000020403FC055
:103BF00024402E00300000000F00108020402240A2
:103C00003380020020403FC0040004003FC0204039
:103C1000204020403FC02040204000000060202085
:103C200020203FC02000200020403FC024400B0047
:103C300030C0204020403FC020400040004000C035
:103C40003FC03C0003C03C003FC0000020403FC0DC
:103C50000C4023003FC020001F8020402040204017
:103C60001F80000020403FC02440240018000000B6
:103C70001F802140214020E01FA0000020403FC0C5
:103C80002440260019C0004018C02440244022408F
:103C900031800000300020403FC020403000000054
:103CA00020003F80004000403F80200020003E0078
:103CB00001C0070038002000380007C03C0007C0E2
:103CC00038000000204039C0060039C02040000004
:103CD0002000384007C0384020000000304021C09C
:103CE0002640384020C00000000000007FE0402057
:103CF00040200000000070000C0003800040000025
:103D00000000402040207FE0000000000000200074
:103D10004000200000000000001000100010001003
:103D20000010001000000000400000000000000033
:103D3000000002800540054003C0004020003FC055
:103D4000044004400380000000000380044004405D
:103D50000640000000000380044024403FC00040B3
:103D600000000380054005400340000000000440BF
:103D70001FC0244024402000000002E005500550F0
:103D80000650042020403FC00440040003C000400F
:103D90000000044027C00040000000000010001098
:103DA000041027E00000000020403FC00140070051
:103DB00004C00440204020403FC0004000400000BC
:103DC00007C0040007C0040003C00000044007C08F
:103DD0000440040003C0004000000380044004408D
:103DE00003800000041007F004500440038000002A
:103DF000000003800440045007F00010044007C096
:103E00000240040004000000000006400540054098
:103E100004C00000000004001F80044000400000B7
:103E2000040007800040044007C000400400070071
:103E300004C0018006000400060001C0070001C0A4
:103E400006000000044006C0010006C00440000057
:103E50000410071004E00180060004000000044084
:103E600005C00640044000000000000004007BE0A4
:103E700040200000000000000000FFF000000000F3
:103E8000000040207BE004000000000040008000B3
:103E90004000200020004000000000000000000062
:103EA00000000000000000000000000000001FCC27
:103EB000000C00000000000000000800300060005E
:103EC0000800300060000000022003FC1E200220D9
:103ED00003FC1E200220000000000E1811043FFF0A
:103EE00010840C78000000000F0010840F3800C010
:103EF000077818840078000000780F8410C411241B
:103F00000E9800E4008400080800680070000000BB
:103F1000000000000000000000000000000007E0BA
:103F20001818200440020000000040022004181865
:103F300007E00000000000000240024001800FF096
:103F400001800240024000000080008000800FF8E5
:103F500000800080008000000001000D000E0000C5
:103F600000000000000000000000008000800080D1
:103F700000800080008000800000000C000C000029
:103F800000000000000000000000000600180060B3
:103F90000180060018002000000007F00808100447
:103FA0001004080807F000000000080408041FFCC3
:103FB000000400040000000000000E0C1014102487
:103FC000104411840E0C000000000C1810041104A1
:103FD000110412880C700000000000E0032004248B
:103FE00008241FFC0024000000001F981084110406
:103FF0001104108810700000000007F008881104F8
:10400000110418880070000000001C00100010FC53
:1040100013001C001000000000000E381144108432
:10402000108411440E38000000000700088C104472
:104030001044088807F00000000000000000030C96
:10404000030C000000000000000000000001010659
:10405000000000000000000000000080014002207D
:104060000410080810040000022002200220022090
:1040700002200220022000000000100408080410A2
:10408000022001400080000000000E001200100C11
:10409000106C10800F00000003E00C1813E41424CF
:1040A00017C4082807D000000004003C03C41C40CB
:1040B000074000E4001C000410041FFC110411045C
:1040C00011040E880070000003E00C1810041004A6
:1040D000100410081C10000010041FFC1004100431
:1040E0001004080807F0000010041FFC110411045C
:1040F00017C410040818000010041FFC110411005C
:1041000017C010000800000003E00C181004100491
:1041100010441C780040000010041FFC1084008034
:10412000008010841FFC10040000100410041FFC09
:104130001004100400000000000300011001100131
:104140001FFE10001000000010041FFC110403806B
:104150001464181C1004000010041FFC1004000458
:1041600000040004000C000010041FFC1F0000FCF1
:104170001F001FFC1004000010041FFC0C040300AF
:1041800000E010181FFC100007F0080810041004CD
:104190001004080807F0000010041FFC10841080B1
:1041A000108010800F00000007F008181024102461
:1041B000101C080A07F2000010041FFC1104110073
:1041C00011C011300E0C000400000E1C11041084EC
:1041D000108410441C3800001800100010041FFC4C
:1041E000100410001800000010001FF81004000454
:1041F000000410041FF8100010001E0011E0001C45
:10420000007013801C0010001FC0103C00E01F0055
:1042100000E0103C1FC000001004180C163401C050
:1042200001C01634180C100410001C00130400FC0C
:1042300013041C00100000000804101C10641084FB
:1042400013041C04101800000000000000007FFE92
:104250004002400240020000000030000C000380D9
:104260000060001C00030000000040024002400209
:104270007FFE000000000000000000002000400061
:10428000400040002000000000010001000100018A
:10429000000100010001000100004000400020007A
:1042A000000000000000000000000098012401440C
:1042B0000144014400FC000410001FFC00880104BC
:1042C00001040088007000000000007000880104F4
:1042D000010401040088000000000070008801044F
:1042E000010411081FFC0004000000F8014401440F
:1042F0000144014400C800000000010401040FFC57
:104300001104110411001800000000D60129012930
:10431000012901C90106000010041FFC00840100EE
:104320000100010400FC000400000104190419FC50
:10433000000400040000000000000003000101016F
:10434000190119FE0000000010041FFC00240040A9
:1043500001B4010C010400000000100410041FFC53
:104360000004000400000000010401FC010401003D
:1043700001FC0104010000FC010401FC00840100B7
:104380000100010400FC0004000000F80104010425
:104390000104010400F80000010101FF008501048F
:1043A0000104008800700000000000700088010413
:1043B0000104010501FF00010104010401FC008466
:1043C0000104010001800000000000CC0124012450
:1043D000012401240198000000000100010007F8F9
:1043E0000104010400000000010001F800040004C1
:1043F0000004010801FC0004010001800170000CB0
:10440000001001600180010001F0010C003001C0CA
:104410000030010C01F0010000000104018C007467
:104420000170018C01040000010101810171000E85
:10443000001801600180010000000184010C0134BA
:1044400001440184010C0000000000000000000095
:1044500001003EFC4002400200000000000000009D
:10446000FFFF0000000000000000400240023EFC90
:1044700001000000000000000000600080008000DB
:10448000400040002000200000000000000000006C
:10449000000000000000000000000000000000001C
:1044A000000000000000000000000000000000000C
:1044B00000000000000000000000000F80380FFE28
:1044C000380F8038000000000000000000000000ED
:1044D0000000000000000100000600000C00003891
:1044E00000003100000600000C0000380000300021
:1044F000000000000000000061800067F807F980FC
:104500000061800061800061800061800067F807C1
:10451000F98000618000000000000000000001C080
:10452000E003E0F00630080418081FFFFE040E0840
:104530000787F00381E000000000000001F00006A2
:104540000C00040408060C7001F9C0000E00003BCA
:10455000E000EC18070808040C180003E000000055
:104560000001E00007F003F818041C08041708070E
:10457000E1D003C0E00023B0003C080020080000A8
:1045800010000000000000010000310000320000B7
:104590001C000000000000000000000000000000FF
:1045A000000000000000000000000000000000000B
:1045B00000000000000000007F0001FFC00780F045
:1045C0000C00181000042000020000000000002071
:1045D00000021000040C00180780F001FFC0007FEB
:1045E00000000000000000000000000000000000CB
:1045F000000000004200006600006600003C000071
:10460000180003FFC0001800003C000066000066B0
:104610000000420000000000080000080000080040
:1046200000080000080001FFC000080000080000AA
:104630000800000800000800000000000001000061
:104640003100003200001C000000000000000000EB
:10465000000000000000000000000000000000005A
:10466000080000080000080000080000080000081A
:10467000000008000008000008000008000000001A
:104680000000000000000000380000380000380082
:10469000000000000000000000000000000000001A
:1046A0000000000000000000000600001C00007078
:1046B000000180000E0000380000C0000700001C50
:1046C0000000300000000000000000007F8001FFBB
:1046D000E0038070060018040008040008060018B3
:1046E00003807001FFE0007F8000000000000000F8
:1046F000000001000801000801000803FFF807FF9F
:10470000F800000800000800000800000000000099
:1047100000000001C03802C05804009804011804C9
:104720000218040418061C1803F81801E0F8000029
:104730000000000000000001C0E003C0F004000819
:1047400004080804080806180803F41801E7F00034
:1047500001E0000000000000000000000300000D68
:104760000000110000610000810803010807FFF844
:104770000FFFF80001080001080000000000000021
:1047800000E007FCD006080806100806100806100E
:1047900008061838060FF00607C0000000000000E9
:1047A000000000003F8001FFE0038430020818048D
:1047B0001008041008041008071810030FF0000771
:1047C000C000000000000000000003C0000700005F
:1047D0000600000600F80607F806180006E00007C5
:1047E000000006000000000000000001E1E003F707
:1047F000F0063410041808041808040C08040C0807
:1048000006161803F3F001C1E000000000000000EC
:10481000F80003FC3003063804020804020804020E
:10482000080404100308F001FFC0007F000000002E
:104830000000000000000000000000000000000078
:104840007038007038007038000000000000000070
:104850000000000000000000000000000000000058
:1048600000000000301A00301C00000000000000B2
:104870000000000000000000000000000000000830
:104880000000140000220000410000808001004070
:1048900002002004001008000800000000000000D2
:1048A0002100002100002100002100002100002142
:1048B0000000210000210000210000210000000074
:1048C00000000000000008000804001002002001A1
:1048D0000040008080004100002200001400000819
:1048E0000000000000000003C00004C0000400003D
:1048F000080038080F380808380810000C30000786
:10490000E00003C000000000000000003F8000FF46
:10491000E0038070020F1006708804C088048308CA
:10492000047F8802C09003012000FE4000000800C0
:1049300000180001F8003E0801C20007020007E26B
:104940000000FE00001FC80001F800003800000849
:1049500004000807FFF807FFF80408080408080423
:10496000080804080806180803F41801E7F0000115
:10497000E0000000000000003F8001FFE0038070C5
:1049800002001804000804000804000804001006CF
:1049900000200780C000000004000807FFF807FFA0
:1049A000F8040008040008040008040018020010BD
:1049B00003807001FFE0007F800000000400080712
:1049C000FFF807FFF80408080408080408080408AA
:1049D00008043E08040008060018010060000000FA
:1049E00004000807FFF807FFF8040808040800049B
:1049F0000800040800043E000600000600000180D4
:104A000000000000000000003F8001FFE003807014
:104A10000600180400080402080402080203F00754
:104A200083F000020000020004000807FFF807FFFF
:104A3000F80408080008000008000008000008004A
:104A400004080807FFF807FFF8040008000000004A
:104A5000000004000804000804000807FFF807FF2E
:104A6000F80400080400080400080000000000002A
:104A7000000000000006000007000001040001041F
:104A8000000104000307FFFE07FFFC040000040010
:104A90000004000004000807FFF807FFF8040C08F2
:104AA000001800003E0004C7800503C80600F80493
:104AB000003804001800000804000807FFF807FF8A
:104AC000F8040008000008000008000008000008C2
:104AD0000000080000180000600000000400080743
:104AE000FFF807800807FC00007FC00003F80007FC
:104AF000C000780007800807FFF807FFF8040008E7
:104B000004000807FFF807000803C00000E00000E9
:104B10003800001E000007000001C00400F007FF7D
:104B2000F8040000000000007F8001FFE0038070B7
:104B300006001804000804000806001803003001ED
:104B4000FFE0007F8000000004000807FFF807FF77
:104B5000F80404080404000404000404000404002D
:104B6000060C0003F80001F0000000000000000047
:104B70007F8001FFE0038070060088040088040045
:104B8000C806003C03003E01FFE6007F84000000F1
:104B900004000807FFF807FFF804080804080004E9
:104BA0000C00040F00040BC00610F003F03801E005
:104BB0000800000800000001E0F803F030063010A3
:104BC000041808041808040C08040C08020618024B
:104BD00007F00781E00000000180000600000400EB
:104BE0000004000004000807FFF807FFF8040008AD
:104BF000040000040000060000018000040000071B
:104C0000FFE007FFF00400180000080000080000A3
:104C10000800000800000804001007FFE00400007E
:104C200004000006000007E00007FE00041FE0008B
:104C300001F80000380001E0043E0007C000060053
:104C40000004000004000007E00007FFC0041FF894
:104C50000007C007F80007FF80043FF80007C00402
:104C6000F80007000004000000000004000806002F
:104C70001807C07805F1C8003E00001F800463E8F3
:104C80000780F80600180400080000000400000671
:104C9000000007800007E008047C08001FF80007F8
:104CA000F800180804E008070000060000040000EF
:104CB0000000000100080600380400F80403E804BE
:104CC0000F08047C0805F00807C008070018040056
:104CD0006000000000000000000000000000000074
:104CE0000000003FFFFE2000022000022000022002
:104CF0000002200002000000000000000000080088
:104D00000007000000C0000038000006000001C0DD
:104D100000003000000E0000010000000000000054
:104D200000002000022000022000022000022000DB
:104D3000023FFFFE00000000000000000000000035
:104D4000000000000000000000080000100000301B
:104D500000002000003000001000000800000000EB
:104D6000000000000000010000010000010000013F
:104D7000000001000001000001000001000001002E
:104D80000001000001000001000000000000000020
:104D900000200000200000100000100000000000B3
:104DA0000000000000000000000000000000000003
:104DB00000F00019F8001B18002208002608002443
:104DC00008002410003FF8001FF800000800001839
:104DD00000000004000007FFF80FFFF000181800A3
:104DE0001008002008002008003018001FF0000FF5
:104DF000C00000000000000007C0001FF0001830D5
:104E0000002008002008002008003C08001C1000BA
:104E100000600000000000000000000007C0001F4C
:104E2000F0003818002008002008002008041010A6
:104E300007FFF80FFFF00000100000000000000066
:104E400000000007C0001FF00012300022180022EE
:104E500008002208003208001E10000E200000008A
:104E600000000000200000200800200801FFF803D7
:104E7000FFF806200804200804200807200003008B
:104E80000000000000000000000E000E6E001FF386
:104E90000031B10020B10020B1003191001F13009A
:104EA0002E1E00200E00300000000004000807FF46
:104EB000F80FFFF800100800200000200000200874
:104EC000003FF8001FF8000008000000000000008C
:104ED0000000002008002008002008063FF8063FD8
:104EE000F8000008000008000008000000000000B2
:104EF000000000000000000003000003002001008B
:104F00002001002003063FFE063FFC0000000000D9
:104F10000000000000000004000807FFF80FFFF881
:104F2000000188000300002FC00038F8002038007E
:104F3000200800000800000000000000000004003D
:104F40000804000804000807FFF80FFFF800000835
:104F50000000080000080000000000000020080019
:104F60003FF8003FF8001008002000003FF8003F25
:104F7000F8001008002000003FF8003FF80000088B
:104F8000000000002008003FF8003FF80010080073
:104F90001000002000002008003FF8001FF800006B
:104FA000080000000000000007C0000FF0001830EB
:104FB00000300800200800200800300800183000E9
:104FC0000FF00007C0000000000000002001003FBB
:104FD000FF003FFF001011002009002008002008FA
:104FE000003038001FF0000FC0000000000000007B
:104FF00007C0001FF000381800200800200800201B
:1050000009001011001FFF003FFF00000100000019
:10501000002008002008002008003FF8003FF800AA
:1050200008080010080020080020000030000030B0
:1050300000000000000000000000000C78001E18B6
:10504000003308002308002108002188002198006F
:1050500030F0003860000000000000002000002058
:105060000000200000FFF003FFF8002008002008E7
:1050700000200800003000000000000000000000D8
:105080002000003FF0007FF800001800000800003A
:1050900008002010003FF8007FF000001000000022
:1050A000000000002000003000003C00003F8000B5
:1050B00023F0000078000070002380003C000030E6
:1050C00000002000002000003C00003FE00023F82A
:1050D0000000E0002700003E00003FE00021F80053
:1050E00001E0003E00002000000000002008002039
:1050F00008003838003E680027800003C8002CF8FC
:1051000000383800201800200800000000000000CF
:105110002000003003003C01003F830023EC00002E
:1051200070002380003C00002000002000000000F0
:105130000000000000000038080020380020F800BF
:1051400023E8002F88003E080038080020180000DF
:1051500070000000000000000000000000000000DF
:105160000000000008000014001FF7FC30000620BB
:10517000000200000000000000000000000000002D
:1051800000000000000000000000FFFFFF00000022
:10519000000000000000000000000000000000000F
:1051A00000002000023000061FF7FC001400000879
:1051B00000000000000000000000000000000000EF
:1051C00000000018000060000040000040000020C7
:1051D00000001000000800000400000400000C00A3
:1051E00000100000506C6561736520757365207454
:1051F0006865207374796C757320636C69636B20C8
:105200007468652063726F7373206F6E20746865B5
:105210002073637265656E2E5468652063726F73C8
:10522000732077696C6C20616C77617973206D6F86
:10523000766520756E74696C20746865207363727E
:1052400065656E2061646A7573746D656E7420693E
:105250007320636F6D706C657465642E00000000D0
:10526000805200080000002068000000763200082C
:10527000E852000868000020C832000086320008AA
:105280000000FFFF01000000D090000000000000BF
:10529000C1290008652C0008BD210008000000009D
:1052A00000000000000000000000000000000000FE
:1052B00000000000000000000000000000000000EE
:1052C000000000000000000014EF000000000000DB
:1052D00000000000000000000102030401020304BA
:0852E0000607080900000000A8
:040000050800018965
:00000001FF
